{
  "_format": "hh-sol-artifact-1",
  "contractName": "LooteryFactory",
  "sourceName": "contracts/lottopgf/LooteryFactory.sol",
  "abi": [
    {
      "inputs": [],
      "stateMutability": "nonpayable",
      "type": "constructor"
    },
    {
      "inputs": [],
      "name": "AccessControlBadConfirmation",
      "type": "error"
    },
    {
      "inputs": [
        {
          "internalType": "address",
          "name": "account",
          "type": "address"
        },
        {
          "internalType": "bytes32",
          "name": "neededRole",
          "type": "bytes32"
        }
      ],
      "name": "AccessControlUnauthorizedAccount",
      "type": "error"
    },
    {
      "inputs": [
        {
          "internalType": "address",
          "name": "target",
          "type": "address"
        }
      ],
      "name": "AddressEmptyCode",
      "type": "error"
    },
    {
      "inputs": [],
      "name": "ERC1167FailedCreateClone",
      "type": "error"
    },
    {
      "inputs": [
        {
          "internalType": "address",
          "name": "implementation",
          "type": "address"
        }
      ],
      "name": "ERC1967InvalidImplementation",
      "type": "error"
    },
    {
      "inputs": [],
      "name": "ERC1967NonPayable",
      "type": "error"
    },
    {
      "inputs": [],
      "name": "FailedInnerCall",
      "type": "error"
    },
    {
      "inputs": [],
      "name": "InvalidInitialization",
      "type": "error"
    },
    {
      "inputs": [],
      "name": "NotInitializing",
      "type": "error"
    },
    {
      "inputs": [],
      "name": "UUPSUnauthorizedCallContext",
      "type": "error"
    },
    {
      "inputs": [
        {
          "internalType": "bytes32",
          "name": "slot",
          "type": "bytes32"
        }
      ],
      "name": "UUPSUnsupportedProxiableUUID",
      "type": "error"
    },
    {
      "anonymous": false,
      "inputs": [
        {
          "indexed": false,
          "internalType": "uint64",
          "name": "version",
          "type": "uint64"
        }
      ],
      "name": "Initialized",
      "type": "event"
    },
    {
      "anonymous": false,
      "inputs": [
        {
          "indexed": true,
          "internalType": "address",
          "name": "looteryProxy",
          "type": "address"
        },
        {
          "indexed": true,
          "internalType": "address",
          "name": "looteryImplementation",
          "type": "address"
        },
        {
          "indexed": true,
          "internalType": "address",
          "name": "deployer",
          "type": "address"
        },
        {
          "indexed": false,
          "internalType": "string",
          "name": "name",
          "type": "string"
        }
      ],
      "name": "LooteryLaunched",
      "type": "event"
    },
    {
      "anonymous": false,
      "inputs": [
        {
          "indexed": false,
          "internalType": "address",
          "name": "oldLooteryMasterCopy",
          "type": "address"
        },
        {
          "indexed": false,
          "internalType": "address",
          "name": "newLooteryMasterCopy",
          "type": "address"
        }
      ],
      "name": "LooteryMasterCopyUpdated",
      "type": "event"
    },
    {
      "anonymous": false,
      "inputs": [
        {
          "indexed": false,
          "internalType": "address",
          "name": "oldRandomiser",
          "type": "address"
        },
        {
          "indexed": false,
          "internalType": "address",
          "name": "newRandomiser",
          "type": "address"
        }
      ],
      "name": "RandomiserUpdated",
      "type": "event"
    },
    {
      "anonymous": false,
      "inputs": [
        {
          "indexed": true,
          "internalType": "bytes32",
          "name": "role",
          "type": "bytes32"
        },
        {
          "indexed": true,
          "internalType": "bytes32",
          "name": "previousAdminRole",
          "type": "bytes32"
        },
        {
          "indexed": true,
          "internalType": "bytes32",
          "name": "newAdminRole",
          "type": "bytes32"
        }
      ],
      "name": "RoleAdminChanged",
      "type": "event"
    },
    {
      "anonymous": false,
      "inputs": [
        {
          "indexed": true,
          "internalType": "bytes32",
          "name": "role",
          "type": "bytes32"
        },
        {
          "indexed": true,
          "internalType": "address",
          "name": "account",
          "type": "address"
        },
        {
          "indexed": true,
          "internalType": "address",
          "name": "sender",
          "type": "address"
        }
      ],
      "name": "RoleGranted",
      "type": "event"
    },
    {
      "anonymous": false,
      "inputs": [
        {
          "indexed": true,
          "internalType": "bytes32",
          "name": "role",
          "type": "bytes32"
        },
        {
          "indexed": true,
          "internalType": "address",
          "name": "account",
          "type": "address"
        },
        {
          "indexed": true,
          "internalType": "address",
          "name": "sender",
          "type": "address"
        }
      ],
      "name": "RoleRevoked",
      "type": "event"
    },
    {
      "anonymous": false,
      "inputs": [
        {
          "indexed": false,
          "internalType": "address",
          "name": "oldTicketSVGRenderer",
          "type": "address"
        },
        {
          "indexed": false,
          "internalType": "address",
          "name": "newTicketSVGRenderer",
          "type": "address"
        }
      ],
      "name": "TicketSVGRendererUpdated",
      "type": "event"
    },
    {
      "anonymous": false,
      "inputs": [
        {
          "indexed": true,
          "internalType": "address",
          "name": "implementation",
          "type": "address"
        }
      ],
      "name": "Upgraded",
      "type": "event"
    },
    {
      "inputs": [],
      "name": "DEFAULT_ADMIN_ROLE",
      "outputs": [
        {
          "internalType": "bytes32",
          "name": "",
          "type": "bytes32"
        }
      ],
      "stateMutability": "view",
      "type": "function"
    },
    {
      "inputs": [],
      "name": "UPGRADE_INTERFACE_VERSION",
      "outputs": [
        {
          "internalType": "string",
          "name": "",
          "type": "string"
        }
      ],
      "stateMutability": "view",
      "type": "function"
    },
    {
      "inputs": [],
      "name": "computeNextAddress",
      "outputs": [
        {
          "internalType": "address",
          "name": "",
          "type": "address"
        }
      ],
      "stateMutability": "view",
      "type": "function"
    },
    {
      "inputs": [
        {
          "internalType": "string",
          "name": "name",
          "type": "string"
        },
        {
          "internalType": "string",
          "name": "symbol",
          "type": "string"
        },
        {
          "internalType": "uint8",
          "name": "pickLength",
          "type": "uint8"
        },
        {
          "internalType": "uint8",
          "name": "maxBallValue",
          "type": "uint8"
        },
        {
          "internalType": "uint256",
          "name": "gamePeriod",
          "type": "uint256"
        },
        {
          "internalType": "uint256",
          "name": "ticketPrice",
          "type": "uint256"
        },
        {
          "internalType": "uint256",
          "name": "communityFeeBps",
          "type": "uint256"
        },
        {
          "internalType": "address",
          "name": "prizeToken",
          "type": "address"
        },
        {
          "internalType": "uint256",
          "name": "seedJackpotDelay",
          "type": "uint256"
        },
        {
          "internalType": "uint256",
          "name": "seedJackpotMinValue",
          "type": "uint256"
        }
      ],
      "name": "create",
      "outputs": [
        {
          "internalType": "address",
          "name": "",
          "type": "address"
        }
      ],
      "stateMutability": "nonpayable",
      "type": "function"
    },
    {
      "inputs": [],
      "name": "getFeeRecipient",
      "outputs": [
        {
          "internalType": "address",
          "name": "",
          "type": "address"
        }
      ],
      "stateMutability": "view",
      "type": "function"
    },
    {
      "inputs": [],
      "name": "getLooteryMasterCopy",
      "outputs": [
        {
          "internalType": "address",
          "name": "",
          "type": "address"
        }
      ],
      "stateMutability": "view",
      "type": "function"
    },
    {
      "inputs": [],
      "name": "getRandomiser",
      "outputs": [
        {
          "internalType": "address",
          "name": "",
          "type": "address"
        }
      ],
      "stateMutability": "view",
      "type": "function"
    },
    {
      "inputs": [
        {
          "internalType": "bytes32",
          "name": "role",
          "type": "bytes32"
        }
      ],
      "name": "getRoleAdmin",
      "outputs": [
        {
          "internalType": "bytes32",
          "name": "",
          "type": "bytes32"
        }
      ],
      "stateMutability": "view",
      "type": "function"
    },
    {
      "inputs": [],
      "name": "getTicketSVGRenderer",
      "outputs": [
        {
          "internalType": "address",
          "name": "",
          "type": "address"
        }
      ],
      "stateMutability": "view",
      "type": "function"
    },
    {
      "inputs": [
        {
          "internalType": "bytes32",
          "name": "role",
          "type": "bytes32"
        },
        {
          "internalType": "address",
          "name": "account",
          "type": "address"
        }
      ],
      "name": "grantRole",
      "outputs": [],
      "stateMutability": "nonpayable",
      "type": "function"
    },
    {
      "inputs": [
        {
          "internalType": "bytes32",
          "name": "role",
          "type": "bytes32"
        },
        {
          "internalType": "address",
          "name": "account",
          "type": "address"
        }
      ],
      "name": "hasRole",
      "outputs": [
        {
          "internalType": "bool",
          "name": "",
          "type": "bool"
        }
      ],
      "stateMutability": "view",
      "type": "function"
    },
    {
      "inputs": [
        {
          "internalType": "address",
          "name": "looteryMasterCopy",
          "type": "address"
        },
        {
          "internalType": "address",
          "name": "randomiser",
          "type": "address"
        },
        {
          "internalType": "address",
          "name": "ticketSVGRenderer",
          "type": "address"
        }
      ],
      "name": "init",
      "outputs": [],
      "stateMutability": "nonpayable",
      "type": "function"
    },
    {
      "inputs": [],
      "name": "proxiableUUID",
      "outputs": [
        {
          "internalType": "bytes32",
          "name": "",
          "type": "bytes32"
        }
      ],
      "stateMutability": "view",
      "type": "function"
    },
    {
      "inputs": [
        {
          "internalType": "bytes32",
          "name": "role",
          "type": "bytes32"
        },
        {
          "internalType": "address",
          "name": "callerConfirmation",
          "type": "address"
        }
      ],
      "name": "renounceRole",
      "outputs": [],
      "stateMutability": "nonpayable",
      "type": "function"
    },
    {
      "inputs": [
        {
          "internalType": "bytes32",
          "name": "role",
          "type": "bytes32"
        },
        {
          "internalType": "address",
          "name": "account",
          "type": "address"
        }
      ],
      "name": "revokeRole",
      "outputs": [],
      "stateMutability": "nonpayable",
      "type": "function"
    },
    {
      "inputs": [
        {
          "internalType": "address",
          "name": "feeRecipient",
          "type": "address"
        }
      ],
      "name": "setFeeRecipient",
      "outputs": [],
      "stateMutability": "nonpayable",
      "type": "function"
    },
    {
      "inputs": [
        {
          "internalType": "address",
          "name": "looteryMasterCopy",
          "type": "address"
        }
      ],
      "name": "setLooteryMasterCopy",
      "outputs": [],
      "stateMutability": "nonpayable",
      "type": "function"
    },
    {
      "inputs": [
        {
          "internalType": "address",
          "name": "randomiser",
          "type": "address"
        }
      ],
      "name": "setRandomiser",
      "outputs": [],
      "stateMutability": "nonpayable",
      "type": "function"
    },
    {
      "inputs": [
        {
          "internalType": "address",
          "name": "ticketSVGRenderer",
          "type": "address"
        }
      ],
      "name": "setTicketSVGRenderer",
      "outputs": [],
      "stateMutability": "nonpayable",
      "type": "function"
    },
    {
      "inputs": [
        {
          "internalType": "bytes4",
          "name": "interfaceId",
          "type": "bytes4"
        }
      ],
      "name": "supportsInterface",
      "outputs": [
        {
          "internalType": "bool",
          "name": "",
          "type": "bool"
        }
      ],
      "stateMutability": "view",
      "type": "function"
    },
    {
      "inputs": [],
      "name": "typeAndVersion",
      "outputs": [
        {
          "internalType": "string",
          "name": "",
          "type": "string"
        }
      ],
      "stateMutability": "pure",
      "type": "function"
    },
    {
      "inputs": [
        {
          "internalType": "address",
          "name": "newImplementation",
          "type": "address"
        },
        {
          "internalType": "bytes",
          "name": "data",
          "type": "bytes"
        }
      ],
      "name": "upgradeToAndCall",
      "outputs": [],
      "stateMutability": "payable",
      "type": "function"
    }
  ],
  "bytecode": "0x60a06040523060805234801561001457600080fd5b5061001d610022565b6100d4565b7ff0c57e16840df040f15088dc2f81fe391c3923bec73e23a9662efc9c229c6a00805468010000000000000000900460ff16156100725760405163f92ee8a960e01b815260040160405180910390fd5b80546001600160401b03908116146100d15780546001600160401b0319166001600160401b0390811782556040519081527fc7f505b2f371ae2175ee4913f4499e1f2633a7b5936321eed1cdaeb6115181d29060200160405180910390a15b50565b608051611aaf6100fd60003960008181610f5901528181610f8201526110df0152611aaf6000f3fe6080604052600436106101745760003560e01c806375fea724116100cb578063ad3cb1cc1161007f578063d3984d8311610059578063d3984d8314610493578063d547741f146104a8578063e74b981b146104c857600080fd5b8063ad3cb1cc14610415578063bd12bc241461045e578063d1e3e04e1461047357600080fd5b806382250a43116100b057806382250a431461037b57806391d148541461039b578063a217fddf1461040057600080fd5b806375fea724146103465780638190ca021461035b57600080fd5b80632f2ff15d1161012d5780634ccb20c0116101075780634ccb20c0146103095780634f1ef2861461031e57806352d1902d1461033157600080fd5b80632f2ff15d146102a957806336568abe146102c957806338e56e73146102e957600080fd5b8063181f5a771161015e578063181f5a77146101db578063184b95591461022a578063248a9ca31461024c57600080fd5b80626195871461017957806301ffc9a7146101ab575b600080fd5b34801561018557600080fd5b5061018e6104e8565b6040516001600160a01b0390911681526020015b60405180910390f35b3480156101b757600080fd5b506101cb6101c63660046115bc565b61051b565b60405190151581526020016101a2565b3480156101e757600080fd5b5060408051808201909152601481527f4c6f6f74657279466163746f727920312e362e3000000000000000000000000060208201525b6040516101a2919061164e565b34801561023657600080fd5b5061024a61024536600461167d565b6105b4565b005b34801561025857600080fd5b5061029b6102673660046116c0565b60009081527f02dd7bc7dec4dceedda775e58dd541e08a116c6c53815c0bd028192f7b626800602052604090206001015490565b6040519081526020016101a2565b3480156102b557600080fd5b5061024a6102c43660046116d9565b6107a0565b3480156102d557600080fd5b5061024a6102e43660046116d9565b6107ea565b3480156102f557600080fd5b5061024a610304366004611705565b61083b565b34801561031557600080fd5b5061018e6108c8565b61024a61032c3660046117b0565b6108f0565b34801561033d57600080fd5b5061029b61090f565b34801561035257600080fd5b5061018e61093e565b34801561036757600080fd5b5061018e610376366004611843565b610966565b34801561038757600080fd5b5061024a610396366004611705565b610b95565b3480156103a757600080fd5b506101cb6103b63660046116d9565b60009182527f02dd7bc7dec4dceedda775e58dd541e08a116c6c53815c0bd028192f7b626800602090815260408084206001600160a01b0393909316845291905290205460ff1690565b34801561040c57600080fd5b5061029b600081565b34801561042157600080fd5b5061021d6040518060400160405280600581526020017f352e302e3000000000000000000000000000000000000000000000000000000081525081565b34801561046a57600080fd5b5061018e610c19565b34801561047f57600080fd5b5061024a61048e366004611705565b610c41565b34801561049f57600080fd5b5061018e610cc5565b3480156104b457600080fd5b5061024a6104c33660046116d9565b610d31565b3480156104d457600080fd5b5061024a6104e3366004611705565b610d75565b60007fd1c597752146589dde9c96027a1c6cda673d6fe5b448036a3b51eb9c108a913c5b546001600160a01b0316919050565b60007fffffffff0000000000000000000000000000000000000000000000000000000082167f7965db0b0000000000000000000000000000000000000000000000000000000014806105ae57507f01ffc9a7000000000000000000000000000000000000000000000000000000007fffffffff000000000000000000000000000000000000000000000000000000008316145b92915050565b7ff0c57e16840df040f15088dc2f81fe391c3923bec73e23a9662efc9c229c6a00805468010000000000000000810460ff16159067ffffffffffffffff166000811580156105ff5750825b905060008267ffffffffffffffff16600114801561061c5750303b155b90508115801561062a575080155b15610661576040517ff92ee8a900000000000000000000000000000000000000000000000000000000815260040160405180910390fd5b845467ffffffffffffffff19166001178555831561069557845468ff00000000000000001916680100000000000000001785555b61069d610dc2565b6106a5610dc2565b7f15244694a038682b3dfdfc9a7b4d57f194bac87a538c298bbb15836f93f3d08e80546001600160a01b03808b166001600160a01b0319928316179092557f7fd620ff951c5553351af243f95586d6c40fbde77386fa401565df721194304b80548a84169083161790557fd1c597752146589dde9c96027a1c6cda673d6fe5b448036a3b51eb9c108a913c80549289169290911691909117905561074a600033610dcc565b50831561079657845468ff000000000000000019168555604051600181527fc7f505b2f371ae2175ee4913f4499e1f2633a7b5936321eed1cdaeb6115181d29060200160405180910390a15b5050505050505050565b60008281527f02dd7bc7dec4dceedda775e58dd541e08a116c6c53815c0bd028192f7b62680060205260409020600101546107da81610e9b565b6107e48383610dcc565b50505050565b6001600160a01b038116331461082c576040517f6697b23200000000000000000000000000000000000000000000000000000000815260040160405180910390fd5b6108368282610ea8565b505050565b600061084681610e9b565b7f15244694a038682b3dfdfc9a7b4d57f194bac87a538c298bbb15836f93f3d08e80546001600160a01b038481166001600160a01b031983168117909355604080519190921680825260208201939093527f6a193348e7282d848a81bda03da86488d12215ae2b212ff975fd1e3e954522ab91015b60405180910390a1505050565b60007f42ca05c9d33288b41ba8de79367abafbc42de97cbc0b0b65f9ad198e935fb6b761050c565b6108f8610f4e565b61090182610fdc565b61090b8282610fe7565b5050565b60006109196110d4565b507f360894a13ba1a3210667c828492db98dca3e2076cc3735a920a3ca505d382bbc90565b60007f7fd620ff951c5553351af243f95586d6c40fbde77386fa401565df721194304b61050c565b600080604051806101a00160405280336001600160a01b031681526020018d81526020018c81526020018b60ff1681526020018a60ff1681526020018981526020018881526020018781526020016109de7f7fd620ff951c5553351af243f95586d6c40fbde77386fa401565df721194304b60001b90565b546001600160a01b0390811682528716602082015260408101869052606081018590526080017fd1c597752146589dde9c96027a1c6cda673d6fe5b448036a3b51eb9c108a913c546001600160a01b03169052905060007fb673313ff65da5deee919e9043f9d191abd6721ce5d457fcf870135fe1bceb998054906000610a6483611913565b9190505590506000610a758261111d565b7f15244694a038682b3dfdfc9a7b4d57f194bac87a538c298bbb15836f93f3d08e549091506001600160a01b03166000610aaf8284611184565b6040517facef672b0000000000000000000000000000000000000000000000000000000081529091506001600160a01b0382169063acef672b90610af790889060040161193a565b600060405180830381600087803b158015610b1157600080fd5b505af1158015610b25573d6000803e3d6000fd5b50505050336001600160a01b0316826001600160a01b0316826001600160a01b03167fd22adf12af1045715ab78a4d25c7ac99005301d0fc1895274a7172d018715de88860200151604051610b7a919061164e565b60405180910390a49f9e505050505050505050505050505050565b6000610ba081610e9b565b7fd1c597752146589dde9c96027a1c6cda673d6fe5b448036a3b51eb9c108a913c80546001600160a01b038481166001600160a01b031983168117909355604080519190921680825260208201939093527f537abe8749664ed38251a8e0a613c8fce90a30cd2bf1004241325ba7ec2bf11d91016108bb565b60007f15244694a038682b3dfdfc9a7b4d57f194bac87a538c298bbb15836f93f3d08e61050c565b6000610c4c81610e9b565b7f7fd620ff951c5553351af243f95586d6c40fbde77386fa401565df721194304b80546001600160a01b038481166001600160a01b031983168117909355604080519190921680825260208201939093527ff115e1bf2769958fce47eddffee49c3a3332b6f314038f9ab1e4463f6f6d324891016108bb565b7fb673313ff65da5deee919e9043f9d191abd6721ce5d457fcf870135fe1bceb995460009081610cf48261111d565b9050610d2a7f15244694a038682b3dfdfc9a7b4d57f194bac87a538c298bbb15836f93f3d08e546001600160a01b03168261120b565b9250505090565b60008281527f02dd7bc7dec4dceedda775e58dd541e08a116c6c53815c0bd028192f7b6268006020526040902060010154610d6b81610e9b565b6107e48383610ea8565b6000610d8081610e9b565b507f42ca05c9d33288b41ba8de79367abafbc42de97cbc0b0b65f9ad198e935fb6b780546001600160a01b0319166001600160a01b0392909216919091179055565b610dca61126e565b565b60008281527f02dd7bc7dec4dceedda775e58dd541e08a116c6c53815c0bd028192f7b626800602081815260408084206001600160a01b038616855290915282205460ff16610e91576000848152602082815260408083206001600160a01b03871684529091529020805460ff19166001179055610e473390565b6001600160a01b0316836001600160a01b0316857f2f8788117e7eff1d82e926ec794901d17c78024a50270940304540a733656f0d60405160405180910390a460019150506105ae565b60009150506105ae565b610ea581336112d5565b50565b60008281527f02dd7bc7dec4dceedda775e58dd541e08a116c6c53815c0bd028192f7b626800602081815260408084206001600160a01b038616855290915282205460ff1615610e91576000848152602082815260408083206001600160a01b0387168085529252808320805460ff1916905551339287917ff6391f5c32d9c69d2a47ea670b442974b53935d1edc7fd64eb21e047a839171b9190a460019150506105ae565b306001600160a01b037f0000000000000000000000000000000000000000000000000000000000000000161480610fbe57507f00000000000000000000000000000000000000000000000000000000000000006001600160a01b0316610fb2611362565b6001600160a01b031614155b15610dca5760405163703e46dd60e11b815260040160405180910390fd5b600061090b81610e9b565b816001600160a01b03166352d1902d6040518163ffffffff1660e01b8152600401602060405180830381865afa925050508015611041575060408051601f3d908101601f1916820190925261103e91810190611a44565b60015b61106e57604051634c9c8ce360e01b81526001600160a01b03831660048201526024015b60405180910390fd5b7f360894a13ba1a3210667c828492db98dca3e2076cc3735a920a3ca505d382bbc81146110ca576040517faa1d49a400000000000000000000000000000000000000000000000000000000815260048101829052602401611065565b610836838361138a565b306001600160a01b037f00000000000000000000000000000000000000000000000000000000000000001614610dca5760405163703e46dd60e11b815260040160405180910390fd5b6000816040516020016111679181526040602082018190526007908201527f6c6f6f7465727900000000000000000000000000000000000000000000000000606082015260800190565b604051602081830303815290604052805190602001209050919050565b6000763d602d80600a3d3981f3363d3d373d3d3d363d730000008360601b60e81c176000526e5af43d82803e903d91602b57fd5bf38360781b1760205281603760096000f590506001600160a01b0381166105ae576040517fc2f868f400000000000000000000000000000000000000000000000000000000815260040160405180910390fd5b6040513060388201526f5af43d82803e903d91602b57fd5bf3ff602482015260148101839052733d602d80600a3d3981f3363d3d373d3d3d363d738152605881018290526037600c820120607882015260556043909101206000905b9392505050565b7ff0c57e16840df040f15088dc2f81fe391c3923bec73e23a9662efc9c229c6a005468010000000000000000900460ff16610dca576040517fd7e6bcf800000000000000000000000000000000000000000000000000000000815260040160405180910390fd5b60008281527f02dd7bc7dec4dceedda775e58dd541e08a116c6c53815c0bd028192f7b626800602090815260408083206001600160a01b038516845290915290205460ff1661090b576040517fe2517d3f0000000000000000000000000000000000000000000000000000000081526001600160a01b038216600482015260248101839052604401611065565b60007f360894a13ba1a3210667c828492db98dca3e2076cc3735a920a3ca505d382bbc61050c565b611393826113e0565b6040516001600160a01b038316907fbc7cd75a20ee27fd9adebab32041f755214dbc6bffa90cc0225b39da2e5c2d3b90600090a28051156113d8576108368282611457565b61090b6114cd565b806001600160a01b03163b60000361141657604051634c9c8ce360e01b81526001600160a01b0382166004820152602401611065565b7f360894a13ba1a3210667c828492db98dca3e2076cc3735a920a3ca505d382bbc80546001600160a01b0319166001600160a01b0392909216919091179055565b6060600080846001600160a01b0316846040516114749190611a5d565b600060405180830381855af49150503d80600081146114af576040519150601f19603f3d011682016040523d82523d6000602084013e6114b4565b606091505b50915091506114c4858383611505565b95945050505050565b3415610dca576040517fb398979f00000000000000000000000000000000000000000000000000000000815260040160405180910390fd5b60608261151a576115158261157a565b611267565b815115801561153157506001600160a01b0384163b155b15611573576040517f9996b3150000000000000000000000000000000000000000000000000000000081526001600160a01b0385166004820152602401611065565b5092915050565b80511561158a5780518082602001fd5b6040517f1425ea4200000000000000000000000000000000000000000000000000000000815260040160405180910390fd5b6000602082840312156115ce57600080fd5b81357fffffffff000000000000000000000000000000000000000000000000000000008116811461126757600080fd5b60005b83811015611619578181015183820152602001611601565b50506000910152565b6000815180845261163a8160208601602086016115fe565b601f01601f19169290920160200192915050565b6020815260006112676020830184611622565b80356001600160a01b038116811461167857600080fd5b919050565b60008060006060848603121561169257600080fd5b61169b84611661565b92506116a960208501611661565b91506116b760408501611661565b90509250925092565b6000602082840312156116d257600080fd5b5035919050565b600080604083850312156116ec57600080fd5b823591506116fc60208401611661565b90509250929050565b60006020828403121561171757600080fd5b61126782611661565b634e487b7160e01b600052604160045260246000fd5b60008067ffffffffffffffff84111561175157611751611720565b50604051601f19601f85018116603f0116810181811067ffffffffffffffff8211171561178057611780611720565b60405283815290508082840185101561179857600080fd5b83836020830137600060208583010152509392505050565b600080604083850312156117c357600080fd5b6117cc83611661565b9150602083013567ffffffffffffffff8111156117e857600080fd5b8301601f810185136117f957600080fd5b61180885823560208401611736565b9150509250929050565b600082601f83011261182357600080fd5b61126783833560208501611736565b803560ff8116811461167857600080fd5b6000806000806000806000806000806101408b8d03121561186357600080fd5b8a3567ffffffffffffffff81111561187a57600080fd5b6118868d828e01611812565b9a505060208b013567ffffffffffffffff8111156118a357600080fd5b6118af8d828e01611812565b9950506118be60408c01611832565b97506118cc60608c01611832565b965060808b0135955060a08b0135945060c08b013593506118ef60e08c01611661565b999c989b509699959894979396509194610100810135936101209091013592509050565b60006001820161193357634e487b7160e01b600052601160045260246000fd5b5060010190565b602081526119546020820183516001600160a01b03169052565b600060208301516101a060408401526119716101c0840182611622565b90506040840151601f1984830301606085015261198e8282611622565b91505060608401516119a5608085018260ff169052565b50608084015160ff811660a08501525060a084015160c084015260c084015160e084015260e08401516101008401526101008401516119f06101208501826001600160a01b03169052565b506101208401516001600160a01b03811661014085015250610140840151610160840152610160840151610180840152610180840151611a3c6101a08501826001600160a01b03169052565b509392505050565b600060208284031215611a5657600080fd5b5051919050565b60008251611a6f8184602087016115fe565b919091019291505056fea26469706673582212204de39fafd01035ae7dae6393d9b7178fd8817d8f234c53abc87c3691a2911b5264736f6c634300081b0033",
  "linkReferences": {},
  "deployedLinkReferences": {}
}