{
  "_format": "hh-sol-artifact-1",
  "contractName": "Lootery",
  "sourceName": "contracts/lottopgf/Lootery.sol",
  "abi": [
    {
      "inputs": [],
      "stateMutability": "nonpayable",
      "type": "constructor"
    },
    {
      "inputs": [
        {
          "internalType": "address",
          "name": "target",
          "type": "address"
        }
      ],
      "name": "AddressEmptyCode",
      "type": "error"
    },
    {
      "inputs": [
        {
          "internalType": "address",
          "name": "account",
          "type": "address"
        }
      ],
      "name": "AddressInsufficientBalance",
      "type": "error"
    },
    {
      "inputs": [
        {
          "internalType": "uint256",
          "name": "tokenId",
          "type": "uint256"
        }
      ],
      "name": "AlreadyClaimed",
      "type": "error"
    },
    {
      "inputs": [
        {
          "internalType": "address",
          "name": "caller",
          "type": "address"
        }
      ],
      "name": "CallerNotRandomiser",
      "type": "error"
    },
    {
      "inputs": [
        {
          "internalType": "uint256",
          "name": "tokenId",
          "type": "uint256"
        }
      ],
      "name": "ClaimWindowMissed",
      "type": "error"
    },
    {
      "inputs": [
        {
          "internalType": "address",
          "name": "sender",
          "type": "address"
        },
        {
          "internalType": "uint256",
          "name": "tokenId",
          "type": "uint256"
        },
        {
          "internalType": "address",
          "name": "owner",
          "type": "address"
        }
      ],
      "name": "ERC721IncorrectOwner",
      "type": "error"
    },
    {
      "inputs": [
        {
          "internalType": "address",
          "name": "operator",
          "type": "address"
        },
        {
          "internalType": "uint256",
          "name": "tokenId",
          "type": "uint256"
        }
      ],
      "name": "ERC721InsufficientApproval",
      "type": "error"
    },
    {
      "inputs": [
        {
          "internalType": "address",
          "name": "approver",
          "type": "address"
        }
      ],
      "name": "ERC721InvalidApprover",
      "type": "error"
    },
    {
      "inputs": [
        {
          "internalType": "address",
          "name": "operator",
          "type": "address"
        }
      ],
      "name": "ERC721InvalidOperator",
      "type": "error"
    },
    {
      "inputs": [
        {
          "internalType": "address",
          "name": "owner",
          "type": "address"
        }
      ],
      "name": "ERC721InvalidOwner",
      "type": "error"
    },
    {
      "inputs": [
        {
          "internalType": "address",
          "name": "receiver",
          "type": "address"
        }
      ],
      "name": "ERC721InvalidReceiver",
      "type": "error"
    },
    {
      "inputs": [
        {
          "internalType": "address",
          "name": "sender",
          "type": "address"
        }
      ],
      "name": "ERC721InvalidSender",
      "type": "error"
    },
    {
      "inputs": [
        {
          "internalType": "uint256",
          "name": "tokenId",
          "type": "uint256"
        }
      ],
      "name": "ERC721NonexistentToken",
      "type": "error"
    },
    {
      "inputs": [],
      "name": "EmptyDisplayName",
      "type": "error"
    },
    {
      "inputs": [],
      "name": "FailedInnerCall",
      "type": "error"
    },
    {
      "inputs": [],
      "name": "GameAlreadyDrawn",
      "type": "error"
    },
    {
      "inputs": [],
      "name": "GameInactive",
      "type": "error"
    },
    {
      "inputs": [
        {
          "internalType": "uint256",
          "name": "paid",
          "type": "uint256"
        },
        {
          "internalType": "uint256",
          "name": "expected",
          "type": "uint256"
        }
      ],
      "name": "IncorrectPaymentAmount",
      "type": "error"
    },
    {
      "inputs": [
        {
          "internalType": "uint256",
          "name": "value",
          "type": "uint256"
        }
      ],
      "name": "InsufficientJackpotSeed",
      "type": "error"
    },
    {
      "inputs": [
        {
          "internalType": "uint256",
          "name": "have",
          "type": "uint256"
        },
        {
          "internalType": "uint256",
          "name": "want",
          "type": "uint256"
        }
      ],
      "name": "InsufficientOperationalFunds",
      "type": "error"
    },
    {
      "inputs": [
        {
          "internalType": "uint256",
          "name": "ballValue",
          "type": "uint256"
        }
      ],
      "name": "InvalidBallValue",
      "type": "error"
    },
    {
      "inputs": [],
      "name": "InvalidFeeShares",
      "type": "error"
    },
    {
      "inputs": [
        {
          "internalType": "uint256",
          "name": "gamePeriod",
          "type": "uint256"
        }
      ],
      "name": "InvalidGamePeriod",
      "type": "error"
    },
    {
      "inputs": [],
      "name": "InvalidInitialization",
      "type": "error"
    },
    {
      "inputs": [],
      "name": "InvalidInputs",
      "type": "error"
    },
    {
      "inputs": [
        {
          "internalType": "uint256",
          "name": "maxBallValue",
          "type": "uint256"
        }
      ],
      "name": "InvalidMaxBallValue",
      "type": "error"
    },
    {
      "inputs": [
        {
          "internalType": "uint256",
          "name": "pickLength",
          "type": "uint256"
        }
      ],
      "name": "InvalidPickLength",
      "type": "error"
    },
    {
      "inputs": [
        {
          "internalType": "address",
          "name": "prizeToken",
          "type": "address"
        }
      ],
      "name": "InvalidPrizeToken",
      "type": "error"
    },
    {
      "inputs": [
        {
          "internalType": "address",
          "name": "randomiser",
          "type": "address"
        }
      ],
      "name": "InvalidRandomiser",
      "type": "error"
    },
    {
      "inputs": [
        {
          "internalType": "uint256",
          "name": "delay",
          "type": "uint256"
        },
        {
          "internalType": "uint256",
          "name": "minValue",
          "type": "uint256"
        }
      ],
      "name": "InvalidSeedJackpotConfig",
      "type": "error"
    },
    {
      "inputs": [
        {
          "internalType": "uint256",
          "name": "ticketPrice",
          "type": "uint256"
        }
      ],
      "name": "InvalidTicketPrice",
      "type": "error"
    },
    {
      "inputs": [
        {
          "internalType": "address",
          "name": "renderer",
          "type": "address"
        }
      ],
      "name": "InvalidTicketSVGRenderer",
      "type": "error"
    },
    {
      "inputs": [],
      "name": "NoRandomnessRequestInFlight",
      "type": "error"
    },
    {
      "inputs": [],
      "name": "NoTicketsSold",
      "type": "error"
    },
    {
      "inputs": [],
      "name": "NoTicketsSpecified",
      "type": "error"
    },
    {
      "inputs": [
        {
          "internalType": "uint256",
          "name": "pickId",
          "type": "uint256"
        },
        {
          "internalType": "uint256",
          "name": "winningPickId",
          "type": "uint256"
        }
      ],
      "name": "NoWin",
      "type": "error"
    },
    {
      "inputs": [],
      "name": "NotInitializing",
      "type": "error"
    },
    {
      "inputs": [
        {
          "internalType": "address",
          "name": "owner",
          "type": "address"
        }
      ],
      "name": "OwnableInvalidOwner",
      "type": "error"
    },
    {
      "inputs": [
        {
          "internalType": "address",
          "name": "account",
          "type": "address"
        }
      ],
      "name": "OwnableUnauthorizedAccount",
      "type": "error"
    },
    {
      "inputs": [],
      "name": "PrizeTokenWithdrawalNotAllowed",
      "type": "error"
    },
    {
      "inputs": [
        {
          "internalType": "uint256",
          "name": "secondsToWait",
          "type": "uint256"
        }
      ],
      "name": "RateLimited",
      "type": "error"
    },
    {
      "inputs": [],
      "name": "ReentrancyGuardReentrantCall",
      "type": "error"
    },
    {
      "inputs": [
        {
          "internalType": "uint256",
          "name": "actual",
          "type": "uint256"
        },
        {
          "internalType": "uint208",
          "name": "expected",
          "type": "uint208"
        }
      ],
      "name": "RequestIdMismatch",
      "type": "error"
    },
    {
      "inputs": [
        {
          "internalType": "uint256",
          "name": "requestId",
          "type": "uint256"
        }
      ],
      "name": "RequestIdOverflow",
      "type": "error"
    },
    {
      "inputs": [
        {
          "internalType": "address",
          "name": "token",
          "type": "address"
        }
      ],
      "name": "SafeERC20FailedOperation",
      "type": "error"
    },
    {
      "inputs": [
        {
          "internalType": "address",
          "name": "to",
          "type": "address"
        },
        {
          "internalType": "uint256",
          "name": "value",
          "type": "uint256"
        },
        {
          "internalType": "bytes",
          "name": "reason",
          "type": "bytes"
        }
      ],
      "name": "TransferFailure",
      "type": "error"
    },
    {
      "inputs": [
        {
          "internalType": "enum ILootery.GameState",
          "name": "actual",
          "type": "uint8"
        }
      ],
      "name": "UnexpectedState",
      "type": "error"
    },
    {
      "inputs": [
        {
          "internalType": "address",
          "name": "beneficiary",
          "type": "address"
        }
      ],
      "name": "UnknownBeneficiary",
      "type": "error"
    },
    {
      "inputs": [
        {
          "internalType": "uint8[]",
          "name": "pick",
          "type": "uint8[]"
        }
      ],
      "name": "UnsortedPick",
      "type": "error"
    },
    {
      "inputs": [
        {
          "internalType": "uint256",
          "name": "deadline",
          "type": "uint256"
        }
      ],
      "name": "WaitLonger",
      "type": "error"
    },
    {
      "anonymous": false,
      "inputs": [
        {
          "indexed": true,
          "internalType": "address",
          "name": "to",
          "type": "address"
        },
        {
          "indexed": false,
          "internalType": "uint256",
          "name": "amount",
          "type": "uint256"
        }
      ],
      "name": "AccruedCommunityFeesWithdrawn",
      "type": "event"
    },
    {
      "anonymous": false,
      "inputs": [
        {
          "indexed": true,
          "internalType": "uint256",
          "name": "gameId",
          "type": "uint256"
        }
      ],
      "name": "ApocalypseModeActivated",
      "type": "event"
    },
    {
      "anonymous": false,
      "inputs": [
        {
          "indexed": true,
          "internalType": "address",
          "name": "owner",
          "type": "address"
        },
        {
          "indexed": true,
          "internalType": "address",
          "name": "approved",
          "type": "address"
        },
        {
          "indexed": true,
          "internalType": "uint256",
          "name": "tokenId",
          "type": "uint256"
        }
      ],
      "name": "Approval",
      "type": "event"
    },
    {
      "anonymous": false,
      "inputs": [
        {
          "indexed": true,
          "internalType": "address",
          "name": "owner",
          "type": "address"
        },
        {
          "indexed": true,
          "internalType": "address",
          "name": "operator",
          "type": "address"
        },
        {
          "indexed": false,
          "internalType": "bool",
          "name": "approved",
          "type": "bool"
        }
      ],
      "name": "ApprovalForAll",
      "type": "event"
    },
    {
      "anonymous": false,
      "inputs": [
        {
          "indexed": true,
          "internalType": "uint256",
          "name": "gameId",
          "type": "uint256"
        },
        {
          "indexed": true,
          "internalType": "address",
          "name": "beneficiary",
          "type": "address"
        },
        {
          "indexed": false,
          "internalType": "uint256",
          "name": "value",
          "type": "uint256"
        }
      ],
      "name": "BeneficiaryPaid",
      "type": "event"
    },
    {
      "anonymous": false,
      "inputs": [
        {
          "indexed": true,
          "internalType": "address",
          "name": "beneficiary",
          "type": "address"
        }
      ],
      "name": "BeneficiaryRemoved",
      "type": "event"
    },
    {
      "anonymous": false,
      "inputs": [
        {
          "indexed": true,
          "internalType": "address",
          "name": "beneficiary",
          "type": "address"
        },
        {
          "indexed": false,
          "internalType": "string",
          "name": "displayName",
          "type": "string"
        }
      ],
      "name": "BeneficiarySet",
      "type": "event"
    },
    {
      "anonymous": false,
      "inputs": [
        {
          "indexed": false,
          "internalType": "uint256",
          "name": "newCallbackGasLimit",
          "type": "uint256"
        }
      ],
      "name": "CallbackGasLimitSet",
      "type": "event"
    },
    {
      "anonymous": false,
      "inputs": [
        {
          "indexed": true,
          "internalType": "uint256",
          "name": "tokenId",
          "type": "uint256"
        },
        {
          "indexed": true,
          "internalType": "uint256",
          "name": "gameId",
          "type": "uint256"
        },
        {
          "indexed": false,
          "internalType": "address",
          "name": "whomst",
          "type": "address"
        },
        {
          "indexed": false,
          "internalType": "uint256",
          "name": "value",
          "type": "uint256"
        }
      ],
      "name": "ConsolationClaimed",
      "type": "event"
    },
    {
      "anonymous": false,
      "inputs": [
        {
          "indexed": true,
          "internalType": "uint256",
          "name": "gameId",
          "type": "uint256"
        }
      ],
      "name": "DrawSkipped",
      "type": "event"
    },
    {
      "anonymous": false,
      "inputs": [
        {
          "indexed": true,
          "internalType": "address",
          "name": "to",
          "type": "address"
        },
        {
          "indexed": false,
          "internalType": "uint256",
          "name": "value",
          "type": "uint256"
        }
      ],
      "name": "ExcessRefunded",
      "type": "event"
    },
    {
      "anonymous": false,
      "inputs": [
        {
          "indexed": false,
          "internalType": "uint256",
          "name": "gameId",
          "type": "uint256"
        },
        {
          "indexed": false,
          "internalType": "uint8[]",
          "name": "winningPick",
          "type": "uint8[]"
        }
      ],
      "name": "GameFinalised",
      "type": "event"
    },
    {
      "anonymous": false,
      "inputs": [
        {
          "indexed": false,
          "internalType": "uint64",
          "name": "version",
          "type": "uint64"
        }
      ],
      "name": "Initialized",
      "type": "event"
    },
    {
      "anonymous": false,
      "inputs": [
        {
          "indexed": true,
          "internalType": "uint256",
          "name": "gameId",
          "type": "uint256"
        },
        {
          "indexed": false,
          "internalType": "uint256",
          "name": "unclaimedPayouts",
          "type": "uint256"
        },
        {
          "indexed": false,
          "internalType": "uint256",
          "name": "currentJackpot",
          "type": "uint256"
        },
        {
          "indexed": false,
          "internalType": "uint256",
          "name": "nextUnclaimedPayouts",
          "type": "uint256"
        },
        {
          "indexed": false,
          "internalType": "uint256",
          "name": "nextJackpot",
          "type": "uint256"
        }
      ],
      "name": "JackpotRollover",
      "type": "event"
    },
    {
      "anonymous": false,
      "inputs": [
        {
          "indexed": true,
          "internalType": "address",
          "name": "whomst",
          "type": "address"
        },
        {
          "indexed": false,
          "internalType": "uint256",
          "name": "amount",
          "type": "uint256"
        }
      ],
      "name": "JackpotSeeded",
      "type": "event"
    },
    {
      "anonymous": false,
      "inputs": [
        {
          "indexed": true,
          "internalType": "address",
          "name": "to",
          "type": "address"
        },
        {
          "indexed": false,
          "internalType": "uint256",
          "name": "amount",
          "type": "uint256"
        }
      ],
      "name": "OperationalFundsWithdrawn",
      "type": "event"
    },
    {
      "anonymous": false,
      "inputs": [
        {
          "indexed": true,
          "internalType": "address",
          "name": "previousOwner",
          "type": "address"
        },
        {
          "indexed": true,
          "internalType": "address",
          "name": "newOwner",
          "type": "address"
        }
      ],
      "name": "OwnershipTransferred",
      "type": "event"
    },
    {
      "anonymous": false,
      "inputs": [
        {
          "indexed": true,
          "internalType": "address",
          "name": "to",
          "type": "address"
        },
        {
          "indexed": false,
          "internalType": "uint256",
          "name": "value",
          "type": "uint256"
        }
      ],
      "name": "ProtocolFeePaid",
      "type": "event"
    },
    {
      "anonymous": false,
      "inputs": [
        {
          "indexed": false,
          "internalType": "uint208",
          "name": "requestId",
          "type": "uint208"
        }
      ],
      "name": "RandomnessRequested",
      "type": "event"
    },
    {
      "anonymous": false,
      "inputs": [
        {
          "indexed": false,
          "internalType": "address",
          "name": "sender",
          "type": "address"
        },
        {
          "indexed": false,
          "internalType": "uint256",
          "name": "amount",
          "type": "uint256"
        }
      ],
      "name": "Received",
      "type": "event"
    },
    {
      "anonymous": false,
      "inputs": [
        {
          "indexed": true,
          "internalType": "uint256",
          "name": "gameId",
          "type": "uint256"
        },
        {
          "indexed": true,
          "internalType": "address",
          "name": "whomst",
          "type": "address"
        },
        {
          "indexed": true,
          "internalType": "uint256",
          "name": "tokenId",
          "type": "uint256"
        },
        {
          "indexed": false,
          "internalType": "uint8[]",
          "name": "pick",
          "type": "uint8[]"
        }
      ],
      "name": "TicketPurchased",
      "type": "event"
    },
    {
      "anonymous": false,
      "inputs": [
        {
          "indexed": true,
          "internalType": "address",
          "name": "renderer",
          "type": "address"
        }
      ],
      "name": "TicketSVGRendererSet",
      "type": "event"
    },
    {
      "anonymous": false,
      "inputs": [
        {
          "indexed": true,
          "internalType": "address",
          "name": "from",
          "type": "address"
        },
        {
          "indexed": true,
          "internalType": "address",
          "name": "to",
          "type": "address"
        },
        {
          "indexed": true,
          "internalType": "uint256",
          "name": "tokenId",
          "type": "uint256"
        }
      ],
      "name": "Transfer",
      "type": "event"
    },
    {
      "anonymous": false,
      "inputs": [
        {
          "indexed": false,
          "internalType": "address",
          "name": "to",
          "type": "address"
        },
        {
          "indexed": false,
          "internalType": "uint256",
          "name": "value",
          "type": "uint256"
        }
      ],
      "name": "Transferred",
      "type": "event"
    },
    {
      "anonymous": false,
      "inputs": [
        {
          "indexed": true,
          "internalType": "uint256",
          "name": "tokenId",
          "type": "uint256"
        },
        {
          "indexed": true,
          "internalType": "uint256",
          "name": "gameId",
          "type": "uint256"
        },
        {
          "indexed": false,
          "internalType": "address",
          "name": "whomst",
          "type": "address"
        },
        {
          "indexed": false,
          "internalType": "uint256",
          "name": "value",
          "type": "uint256"
        }
      ],
      "name": "WinningsClaimed",
      "type": "event"
    },
    {
      "inputs": [],
      "name": "PROTOCOL_FEE_BPS",
      "outputs": [
        {
          "internalType": "uint256",
          "name": "",
          "type": "uint256"
        }
      ],
      "stateMutability": "view",
      "type": "function"
    },
    {
      "inputs": [],
      "name": "accruedCommunityFees",
      "outputs": [
        {
          "internalType": "uint256",
          "name": "",
          "type": "uint256"
        }
      ],
      "stateMutability": "view",
      "type": "function"
    },
    {
      "inputs": [
        {
          "internalType": "address",
          "name": "to",
          "type": "address"
        },
        {
          "internalType": "uint256",
          "name": "tokenId",
          "type": "uint256"
        }
      ],
      "name": "approve",
      "outputs": [],
      "stateMutability": "nonpayable",
      "type": "function"
    },
    {
      "inputs": [
        {
          "internalType": "address",
          "name": "owner",
          "type": "address"
        }
      ],
      "name": "balanceOf",
      "outputs": [
        {
          "internalType": "uint256",
          "name": "",
          "type": "uint256"
        }
      ],
      "stateMutability": "view",
      "type": "function"
    },
    {
      "inputs": [],
      "name": "beneficiaries",
      "outputs": [
        {
          "internalType": "address[]",
          "name": "addresses",
          "type": "address[]"
        },
        {
          "internalType": "string[]",
          "name": "names",
          "type": "string[]"
        }
      ],
      "stateMutability": "view",
      "type": "function"
    },
    {
      "inputs": [
        {
          "internalType": "address",
          "name": "beneficiary",
          "type": "address"
        }
      ],
      "name": "beneficiaryDisplayNames",
      "outputs": [
        {
          "internalType": "string",
          "name": "name",
          "type": "string"
        }
      ],
      "stateMutability": "view",
      "type": "function"
    },
    {
      "inputs": [],
      "name": "callbackGasLimit",
      "outputs": [
        {
          "internalType": "uint256",
          "name": "",
          "type": "uint256"
        }
      ],
      "stateMutability": "view",
      "type": "function"
    },
    {
      "inputs": [
        {
          "internalType": "uint256",
          "name": "tokenId",
          "type": "uint256"
        }
      ],
      "name": "claimWinnings",
      "outputs": [
        {
          "internalType": "uint256",
          "name": "prizeShare",
          "type": "uint256"
        }
      ],
      "stateMutability": "nonpayable",
      "type": "function"
    },
    {
      "inputs": [],
      "name": "communityFeeBps",
      "outputs": [
        {
          "internalType": "uint256",
          "name": "",
          "type": "uint256"
        }
      ],
      "stateMutability": "view",
      "type": "function"
    },
    {
      "inputs": [
        {
          "internalType": "uint256",
          "name": "pickId",
          "type": "uint256"
        }
      ],
      "name": "computePick",
      "outputs": [
        {
          "internalType": "uint8[]",
          "name": "pick",
          "type": "uint8[]"
        }
      ],
      "stateMutability": "view",
      "type": "function"
    },
    {
      "inputs": [
        {
          "internalType": "uint256",
          "name": "randomSeed",
          "type": "uint256"
        }
      ],
      "name": "computeWinningPick",
      "outputs": [
        {
          "internalType": "uint8[]",
          "name": "balls",
          "type": "uint8[]"
        }
      ],
      "stateMutability": "view",
      "type": "function"
    },
    {
      "inputs": [],
      "name": "currentGame",
      "outputs": [
        {
          "internalType": "enum ILootery.GameState",
          "name": "state",
          "type": "uint8"
        },
        {
          "internalType": "uint248",
          "name": "id",
          "type": "uint248"
        }
      ],
      "stateMutability": "view",
      "type": "function"
    },
    {
      "inputs": [],
      "name": "draw",
      "outputs": [],
      "stateMutability": "payable",
      "type": "function"
    },
    {
      "inputs": [],
      "name": "factory",
      "outputs": [
        {
          "internalType": "address",
          "name": "",
          "type": "address"
        }
      ],
      "stateMutability": "view",
      "type": "function"
    },
    {
      "inputs": [],
      "name": "forceRedraw",
      "outputs": [],
      "stateMutability": "payable",
      "type": "function"
    },
    {
      "inputs": [
        {
          "internalType": "uint256",
          "name": "gameId",
          "type": "uint256"
        }
      ],
      "name": "gameData",
      "outputs": [
        {
          "internalType": "uint64",
          "name": "ticketsSold",
          "type": "uint64"
        },
        {
          "internalType": "uint64",
          "name": "startedAt",
          "type": "uint64"
        },
        {
          "internalType": "uint256",
          "name": "winningPickId",
          "type": "uint256"
        }
      ],
      "stateMutability": "view",
      "type": "function"
    },
    {
      "inputs": [],
      "name": "gamePeriod",
      "outputs": [
        {
          "internalType": "uint256",
          "name": "",
          "type": "uint256"
        }
      ],
      "stateMutability": "view",
      "type": "function"
    },
    {
      "inputs": [
        {
          "internalType": "uint256",
          "name": "tokenId",
          "type": "uint256"
        }
      ],
      "name": "getApproved",
      "outputs": [
        {
          "internalType": "address",
          "name": "",
          "type": "address"
        }
      ],
      "stateMutability": "view",
      "type": "function"
    },
    {
      "inputs": [],
      "name": "getRequestPrice",
      "outputs": [
        {
          "internalType": "uint256",
          "name": "",
          "type": "uint256"
        }
      ],
      "stateMutability": "view",
      "type": "function"
    },
    {
      "inputs": [
        {
          "components": [
            {
              "internalType": "address",
              "name": "owner",
              "type": "address"
            },
            {
              "internalType": "string",
              "name": "name",
              "type": "string"
            },
            {
              "internalType": "string",
              "name": "symbol",
              "type": "string"
            },
            {
              "internalType": "uint8",
              "name": "pickLength",
              "type": "uint8"
            },
            {
              "internalType": "uint8",
              "name": "maxBallValue",
              "type": "uint8"
            },
            {
              "internalType": "uint256",
              "name": "gamePeriod",
              "type": "uint256"
            },
            {
              "internalType": "uint256",
              "name": "ticketPrice",
              "type": "uint256"
            },
            {
              "internalType": "uint256",
              "name": "communityFeeBps",
              "type": "uint256"
            },
            {
              "internalType": "address",
              "name": "randomiser",
              "type": "address"
            },
            {
              "internalType": "address",
              "name": "prizeToken",
              "type": "address"
            },
            {
              "internalType": "uint256",
              "name": "seedJackpotDelay",
              "type": "uint256"
            },
            {
              "internalType": "uint256",
              "name": "seedJackpotMinValue",
              "type": "uint256"
            },
            {
              "internalType": "address",
              "name": "ticketSVGRenderer",
              "type": "address"
            }
          ],
          "internalType": "struct ILootery.InitConfig",
          "name": "initConfig",
          "type": "tuple"
        }
      ],
      "name": "init",
      "outputs": [],
      "stateMutability": "nonpayable",
      "type": "function"
    },
    {
      "inputs": [],
      "name": "isApocalypseMode",
      "outputs": [
        {
          "internalType": "bool",
          "name": "",
          "type": "bool"
        }
      ],
      "stateMutability": "view",
      "type": "function"
    },
    {
      "inputs": [
        {
          "internalType": "address",
          "name": "owner",
          "type": "address"
        },
        {
          "internalType": "address",
          "name": "operator",
          "type": "address"
        }
      ],
      "name": "isApprovedForAll",
      "outputs": [
        {
          "internalType": "bool",
          "name": "",
          "type": "bool"
        }
      ],
      "stateMutability": "view",
      "type": "function"
    },
    {
      "inputs": [],
      "name": "isGameActive",
      "outputs": [
        {
          "internalType": "bool",
          "name": "",
          "type": "bool"
        }
      ],
      "stateMutability": "view",
      "type": "function"
    },
    {
      "inputs": [
        {
          "internalType": "uint256",
          "name": "tokenId",
          "type": "uint256"
        }
      ],
      "name": "isWinningsClaimed",
      "outputs": [
        {
          "internalType": "bool",
          "name": "",
          "type": "bool"
        }
      ],
      "stateMutability": "view",
      "type": "function"
    },
    {
      "inputs": [],
      "name": "jackpot",
      "outputs": [
        {
          "internalType": "uint256",
          "name": "",
          "type": "uint256"
        }
      ],
      "stateMutability": "view",
      "type": "function"
    },
    {
      "inputs": [],
      "name": "jackpotLastSeededAt",
      "outputs": [
        {
          "internalType": "uint256",
          "name": "",
          "type": "uint256"
        }
      ],
      "stateMutability": "view",
      "type": "function"
    },
    {
      "inputs": [],
      "name": "kill",
      "outputs": [],
      "stateMutability": "nonpayable",
      "type": "function"
    },
    {
      "inputs": [],
      "name": "maxBallValue",
      "outputs": [
        {
          "internalType": "uint8",
          "name": "",
          "type": "uint8"
        }
      ],
      "stateMutability": "view",
      "type": "function"
    },
    {
      "inputs": [],
      "name": "name",
      "outputs": [
        {
          "internalType": "string",
          "name": "",
          "type": "string"
        }
      ],
      "stateMutability": "view",
      "type": "function"
    },
    {
      "inputs": [
        {
          "internalType": "uint256",
          "name": "gameId",
          "type": "uint256"
        }
      ],
      "name": "numClaimedWinningTickets",
      "outputs": [
        {
          "internalType": "uint256",
          "name": "",
          "type": "uint256"
        }
      ],
      "stateMutability": "view",
      "type": "function"
    },
    {
      "inputs": [
        {
          "internalType": "uint256",
          "name": "gameId",
          "type": "uint256"
        },
        {
          "internalType": "uint256",
          "name": "pickId",
          "type": "uint256"
        }
      ],
      "name": "numWinnersInGame",
      "outputs": [
        {
          "internalType": "uint256",
          "name": "",
          "type": "uint256"
        }
      ],
      "stateMutability": "view",
      "type": "function"
    },
    {
      "inputs": [],
      "name": "owner",
      "outputs": [
        {
          "internalType": "address",
          "name": "",
          "type": "address"
        }
      ],
      "stateMutability": "view",
      "type": "function"
    },
    {
      "inputs": [
        {
          "internalType": "uint256",
          "name": "tokenId",
          "type": "uint256"
        }
      ],
      "name": "ownerOf",
      "outputs": [
        {
          "internalType": "address",
          "name": "",
          "type": "address"
        }
      ],
      "stateMutability": "view",
      "type": "function"
    },
    {
      "inputs": [],
      "name": "pickLength",
      "outputs": [
        {
          "internalType": "uint8",
          "name": "",
          "type": "uint8"
        }
      ],
      "stateMutability": "view",
      "type": "function"
    },
    {
      "inputs": [],
      "name": "prizeToken",
      "outputs": [
        {
          "internalType": "address",
          "name": "",
          "type": "address"
        }
      ],
      "stateMutability": "view",
      "type": "function"
    },
    {
      "inputs": [
        {
          "components": [
            {
              "internalType": "address",
              "name": "whomst",
              "type": "address"
            },
            {
              "internalType": "uint8[]",
              "name": "pick",
              "type": "uint8[]"
            }
          ],
          "internalType": "struct ILootery.Ticket[]",
          "name": "tickets",
          "type": "tuple[]"
        },
        {
          "internalType": "address",
          "name": "beneficiary",
          "type": "address"
        }
      ],
      "name": "purchase",
      "outputs": [],
      "stateMutability": "nonpayable",
      "type": "function"
    },
    {
      "inputs": [
        {
          "internalType": "uint256",
          "name": "tokenId",
          "type": "uint256"
        }
      ],
      "name": "purchasedTickets",
      "outputs": [
        {
          "internalType": "uint256",
          "name": "gameId",
          "type": "uint256"
        },
        {
          "internalType": "uint256",
          "name": "pickId",
          "type": "uint256"
        }
      ],
      "stateMutability": "view",
      "type": "function"
    },
    {
      "inputs": [],
      "name": "randomiser",
      "outputs": [
        {
          "internalType": "address",
          "name": "",
          "type": "address"
        }
      ],
      "stateMutability": "view",
      "type": "function"
    },
    {
      "inputs": [],
      "name": "randomnessRequest",
      "outputs": [
        {
          "internalType": "uint208",
          "name": "requestId",
          "type": "uint208"
        },
        {
          "internalType": "uint48",
          "name": "timestamp",
          "type": "uint48"
        }
      ],
      "stateMutability": "view",
      "type": "function"
    },
    {
      "inputs": [
        {
          "internalType": "uint256",
          "name": "requestId",
          "type": "uint256"
        },
        {
          "internalType": "uint256",
          "name": "randomWord",
          "type": "uint256"
        }
      ],
      "name": "receiveRandomness",
      "outputs": [],
      "stateMutability": "nonpayable",
      "type": "function"
    },
    {
      "inputs": [],
      "name": "renounceOwnership",
      "outputs": [],
      "stateMutability": "nonpayable",
      "type": "function"
    },
    {
      "inputs": [],
      "name": "rescueETH",
      "outputs": [],
      "stateMutability": "nonpayable",
      "type": "function"
    },
    {
      "inputs": [
        {
          "internalType": "address",
          "name": "tokenAddress",
          "type": "address"
        }
      ],
      "name": "rescueTokens",
      "outputs": [],
      "stateMutability": "nonpayable",
      "type": "function"
    },
    {
      "inputs": [
        {
          "internalType": "address",
          "name": "from",
          "type": "address"
        },
        {
          "internalType": "address",
          "name": "to",
          "type": "address"
        },
        {
          "internalType": "uint256",
          "name": "tokenId",
          "type": "uint256"
        }
      ],
      "name": "safeTransferFrom",
      "outputs": [],
      "stateMutability": "nonpayable",
      "type": "function"
    },
    {
      "inputs": [
        {
          "internalType": "address",
          "name": "from",
          "type": "address"
        },
        {
          "internalType": "address",
          "name": "to",
          "type": "address"
        },
        {
          "internalType": "uint256",
          "name": "tokenId",
          "type": "uint256"
        },
        {
          "internalType": "bytes",
          "name": "data",
          "type": "bytes"
        }
      ],
      "name": "safeTransferFrom",
      "outputs": [],
      "stateMutability": "nonpayable",
      "type": "function"
    },
    {
      "inputs": [
        {
          "internalType": "uint256",
          "name": "value",
          "type": "uint256"
        }
      ],
      "name": "seedJackpot",
      "outputs": [],
      "stateMutability": "nonpayable",
      "type": "function"
    },
    {
      "inputs": [],
      "name": "seedJackpotDelay",
      "outputs": [
        {
          "internalType": "uint256",
          "name": "",
          "type": "uint256"
        }
      ],
      "stateMutability": "view",
      "type": "function"
    },
    {
      "inputs": [],
      "name": "seedJackpotMinValue",
      "outputs": [
        {
          "internalType": "uint256",
          "name": "",
          "type": "uint256"
        }
      ],
      "stateMutability": "view",
      "type": "function"
    },
    {
      "inputs": [
        {
          "internalType": "address",
          "name": "operator",
          "type": "address"
        },
        {
          "internalType": "bool",
          "name": "approved",
          "type": "bool"
        }
      ],
      "name": "setApprovalForAll",
      "outputs": [],
      "stateMutability": "nonpayable",
      "type": "function"
    },
    {
      "inputs": [
        {
          "internalType": "address",
          "name": "beneficiary",
          "type": "address"
        },
        {
          "internalType": "string",
          "name": "displayName",
          "type": "string"
        },
        {
          "internalType": "bool",
          "name": "isBeneficiary",
          "type": "bool"
        }
      ],
      "name": "setBeneficiary",
      "outputs": [
        {
          "internalType": "bool",
          "name": "didMutate",
          "type": "bool"
        }
      ],
      "stateMutability": "nonpayable",
      "type": "function"
    },
    {
      "inputs": [
        {
          "internalType": "address",
          "name": "renderer",
          "type": "address"
        }
      ],
      "name": "setTicketSVGRenderer",
      "outputs": [],
      "stateMutability": "nonpayable",
      "type": "function"
    },
    {
      "inputs": [
        {
          "internalType": "bytes4",
          "name": "interfaceId",
          "type": "bytes4"
        }
      ],
      "name": "supportsInterface",
      "outputs": [
        {
          "internalType": "bool",
          "name": "",
          "type": "bool"
        }
      ],
      "stateMutability": "view",
      "type": "function"
    },
    {
      "inputs": [],
      "name": "symbol",
      "outputs": [
        {
          "internalType": "string",
          "name": "",
          "type": "string"
        }
      ],
      "stateMutability": "view",
      "type": "function"
    },
    {
      "inputs": [],
      "name": "ticketPrice",
      "outputs": [
        {
          "internalType": "uint256",
          "name": "",
          "type": "uint256"
        }
      ],
      "stateMutability": "view",
      "type": "function"
    },
    {
      "inputs": [],
      "name": "ticketSVGRenderer",
      "outputs": [
        {
          "internalType": "address",
          "name": "",
          "type": "address"
        }
      ],
      "stateMutability": "view",
      "type": "function"
    },
    {
      "inputs": [
        {
          "internalType": "uint256",
          "name": "gameId",
          "type": "uint256"
        },
        {
          "internalType": "uint256",
          "name": "id",
          "type": "uint256"
        },
        {
          "internalType": "uint256",
          "name": "",
          "type": "uint256"
        }
      ],
      "name": "tokenByPickIdentity",
      "outputs": [
        {
          "internalType": "uint256",
          "name": "",
          "type": "uint256"
        }
      ],
      "stateMutability": "view",
      "type": "function"
    },
    {
      "inputs": [
        {
          "internalType": "uint256",
          "name": "tokenId",
          "type": "uint256"
        }
      ],
      "name": "tokenURI",
      "outputs": [
        {
          "internalType": "string",
          "name": "",
          "type": "string"
        }
      ],
      "stateMutability": "view",
      "type": "function"
    },
    {
      "inputs": [],
      "name": "totalSupply",
      "outputs": [
        {
          "internalType": "uint256",
          "name": "",
          "type": "uint256"
        }
      ],
      "stateMutability": "view",
      "type": "function"
    },
    {
      "inputs": [
        {
          "internalType": "address",
          "name": "from",
          "type": "address"
        },
        {
          "internalType": "address",
          "name": "to",
          "type": "address"
        },
        {
          "internalType": "uint256",
          "name": "tokenId",
          "type": "uint256"
        }
      ],
      "name": "transferFrom",
      "outputs": [],
      "stateMutability": "nonpayable",
      "type": "function"
    },
    {
      "inputs": [
        {
          "internalType": "address",
          "name": "newOwner",
          "type": "address"
        }
      ],
      "name": "transferOwnership",
      "outputs": [],
      "stateMutability": "nonpayable",
      "type": "function"
    },
    {
      "inputs": [],
      "name": "typeAndVersion",
      "outputs": [
        {
          "internalType": "string",
          "name": "",
          "type": "string"
        }
      ],
      "stateMutability": "pure",
      "type": "function"
    },
    {
      "inputs": [],
      "name": "unclaimedPayouts",
      "outputs": [
        {
          "internalType": "uint256",
          "name": "",
          "type": "uint256"
        }
      ],
      "stateMutability": "view",
      "type": "function"
    },
    {
      "inputs": [],
      "name": "withdrawAccruedFees",
      "outputs": [],
      "stateMutability": "nonpayable",
      "type": "function"
    },
    {
      "stateMutability": "payable",
      "type": "receive"
    }
  ],
  "bytecode": "0x6080604052348015600f57600080fd5b506016601a565b60ca565b7ff0c57e16840df040f15088dc2f81fe391c3923bec73e23a9662efc9c229c6a00805468010000000000000000900460ff161560695760405163f92ee8a960e01b815260040160405180910390fd5b80546001600160401b039081161460c75780546001600160401b0319166001600160401b0390811782556040519081527fc7f505b2f371ae2175ee4913f4499e1f2633a7b5936321eed1cdaeb6115181d29060200160405180910390a15b50565b61560e806100d96000396000f3fe6080604052600436106103bb5760003560e01c806362ff220f116101f2578063acef672b1161010d578063ccb46bd7116100a0578063e02ae8ce1161006f578063e02ae8ce14610ba8578063e985e9c514610bff578063efe2f0eb14610c67578063f2fde38b14610cb057600080fd5b8063ccb46bd714610b25578063d0ef024a14610b45578063d20831af14610b65578063dff100c114610b7b57600080fd5b8063be378228116100dc578063be37822814610a5e578063c45a015514610a74578063c87b56dd14610a94578063ccaf237f14610ab457600080fd5b8063acef672b146109f3578063ada82c7d14610a13578063ae46631314610a28578063b88d4fde14610a3e57600080fd5b806384bc6a241161018557806395d89b411161015457806395d89b41146109925780639ab6e297146109a7578063a14916d9146109bd578063a22cb465146109d357600080fd5b806384bc6a24146108fe5780638bba01741461091f5780638da5cb5b146109355780638e84f4b61461097257600080fd5b80636b31ee01116101c15780636b31ee011461089357806370a08231146108a9578063715018a6146108c957806382250a43146108de57600080fd5b806362ff220f1461082b5780636352211e1461084b578063649edf111461086b578063677bd9ff1461087357600080fd5b8063210b9f03116102e257806341c0e1b51161027557806354dd386c1161024457806354dd386c146107a3578063586a19d9146107b957806360b663bb146107d95780636160c00c1461081157600080fd5b806341c0e1b51461072c57806342842e0e14610741578063463d7b1a146107615780634ea217c41461078e57600080fd5b80632efb2d41116102b15780632efb2d4114610694578063336f528a146106b457806338aeb836146106d45780633af37a55146106f457600080fd5b8063210b9f031461060e57806323b872dd1461062e578063249f1e261461064e57806324f746971461067e57600080fd5b80630c0ef2b01161035a578063181f5a7711610329578063181f5a771461055d57806318575c0c146105a35780631d29bd5a146105d657806320800a00146105f957600080fd5b80630c0ef2b0146105145780630eecae21146105295780631209b1f61461053157806318160ddd1461054757600080fd5b806302950fb91161039657806302950fb91461047a57806306fdde031461049a578063081812fc146104bc578063095ea7b3146104f457600080fd5b8062ae3bf8146103ff5780630171984b1461042157806301ffc9a71461044a57600080fd5b366103fa57604080513381523460208201527f88a5966d370b9919b20f3e2c13ff65706f196a4e32cc2c12bf57088f88525874910160405180910390a1005b600080fd5b34801561040b57600080fd5b5061041f61041a3660046147ea565b610cd0565b005b34801561042d57600080fd5b5061043760055481565b6040519081526020015b60405180910390f35b34801561045657600080fd5b5061046a61046536600461481d565b610dbe565b6040519015158152602001610441565b34801561048657600080fd5b5061041f61049536600461483a565b610e42565b3480156104a657600080fd5b506104af610f9f565b60405161044191906148a3565b3480156104c857600080fd5b506104dc6104d736600461483a565b611055565b6040516001600160a01b039091168152602001610441565b34801561050057600080fd5b5061041f61050f3660046148b6565b61109d565b34801561052057600080fd5b5061046a6110a8565b61041f6110ca565b34801561053d57600080fd5b5061043760045481565b34801561055357600080fd5b50610437600a5481565b34801561056957600080fd5b5060408051808201909152600d81527f4c6f6f7465727920312e392e300000000000000000000000000000000000000060208201526104af565b3480156105af57600080fd5b506000546105c490600160a81b900460ff1681565b60405160ff9091168152602001610441565b3480156105e257600080fd5b506105eb611234565b6040516104419291906148e2565b34801561060557600080fd5b5061041f611390565b34801561061a57600080fd5b5061041f61062936600461498d565b611446565b34801561063a57600080fd5b5061041f6106493660046149af565b6115d4565b34801561065a57600080fd5b5061046a61066936600461483a565b60136020526000908152604090205460ff1681565b34801561068a57600080fd5b5061043760095481565b3480156106a057600080fd5b506008546104dc906001600160a01b031681565b3480156106c057600080fd5b506002546104dc906001600160a01b031681565b3480156106e057600080fd5b506104376106ef3660046149f0565b611678565b34801561070057600080fd5b5061043761070f36600461498d565b600091825260116020908152604080842092845291905290205490565b34801561073857600080fd5b5061041f6116b6565b34801561074d57600080fd5b5061041f61075c3660046149af565b611788565b34801561076d57600080fd5b5061078161077c36600461483a565b6117a3565b6040516104419190614a5b565b34801561079a57600080fd5b506104376117c7565b3480156107af57600080fd5b5061043760075481565b3480156107c557600080fd5b506107816107d436600461483a565b611861565b3480156107e557600080fd5b50600b546108039060ff81169061010090046001600160f81b031682565b604051610441929190614aa6565b34801561081d57600080fd5b5060155461046a9060ff1681565b34801561083757600080fd5b5061041f610846366004614aca565b61187b565b34801561085757600080fd5b506104dc61086636600461483a565b611b59565b61041f611b64565b34801561087f57600080fd5b5061043761088e36600461483a565b611ca1565b34801561089f57600080fd5b50610437600c5481565b3480156108b557600080fd5b506104376108c43660046147ea565b61208f565b3480156108d557600080fd5b5061041f612116565b3480156108ea57600080fd5b5061041f6108f93660046147ea565b612128565b34801561090a57600080fd5b506000546105c490600160a01b900460ff1681565b34801561092b57600080fd5b5061043760065481565b34801561094157600080fd5b507f9016d09d72d40fdae2fd8ceac6b6234c7706214fd39c1cd1e609a0528c199300546001600160a01b03166104dc565b34801561097e57600080fd5b506104af61098d3660046147ea565b61213c565b34801561099e57600080fd5b506104af6121d6565b3480156109b357600080fd5b50610437600d5481565b3480156109c957600080fd5b5061043760145481565b3480156109df57600080fd5b5061041f6109ee366004614b61565b612227565b3480156109ff57600080fd5b5061041f610a0e366004614ca2565b612232565b348015610a1f57600080fd5b5061041f61279d565b348015610a3457600080fd5b5061043760015481565b348015610a4a57600080fd5b5061041f610a59366004614de0565b6127fd565b348015610a6a57600080fd5b506104376101f481565b348015610a8057600080fd5b506000546104dc906001600160a01b031681565b348015610aa057600080fd5b506104af610aaf36600461483a565b612814565b348015610ac057600080fd5b50610afe610acf36600461483a565b6010602052600090815260409020805460019091015467ffffffffffffffff80831692600160401b9004169083565b6040805167ffffffffffffffff948516815293909216602084015290820152606001610441565b348015610b3157600080fd5b5061046a610b40366004614e60565b6128d4565b348015610b5157600080fd5b506003546104dc906001600160a01b031681565b348015610b7157600080fd5b5061043760165481565b348015610b8757600080fd5b50610437610b9636600461483a565b60126020526000908152604090205481565b348015610bb457600080fd5b50600e54610bd9906001600160d01b03811690600160d01b900465ffffffffffff1682565b604080516001600160d01b03909316835265ffffffffffff909116602083015201610441565b348015610c0b57600080fd5b5061046a610c1a366004614efa565b6001600160a01b0391821660009081527f80bb2b638cc20bc4d0a60d66940f3ab4a00c1d7b313497ca82fb0b4ab00793056020908152604080832093909416825291909152205460ff1690565b348015610c7357600080fd5b50610c9b610c8236600461483a565b600f602052600090815260409020805460019091015482565b60408051928352602083019190915201610441565b348015610cbc57600080fd5b5061041f610ccb3660046147ea565b612a69565b610cd8612abd565b6003546001600160a01b0390811690821603610d20576040517f5ed436b700000000000000000000000000000000000000000000000000000000815260040160405180910390fd5b6040517f70a082310000000000000000000000000000000000000000000000000000000081523060048201526000906001600160a01b038316906370a0823190602401602060405180830381865afa158015610d80573d6000803e3d6000fd5b505050506040513d601f19601f82011682018060405250810190610da49190614f28565b9050610dba6001600160a01b0383163383612b31565b5050565b60006001600160e01b031982167f80ac58cd000000000000000000000000000000000000000000000000000000001480610e2157506001600160e01b031982167f5b5e139f00000000000000000000000000000000000000000000000000000000145b80610e3c57506301ffc9a760e01b6001600160e01b03198316145b92915050565b600180600b5460ff166003811115610e5c57610e5c614a6e565b14610e8a57600b54604051632812aa8760e01b8152610e819160ff1690600401614f41565b60405180910390fd5b600754821015610ec9576040517f7b47632100000000000000000000000000000000000000000000000000000000815260048101839052602401610e81565b600654601654610ed99190614f65565b421015610f305742600654601654610ef19190614f65565b610efb9190614f78565b6040517ff015865e000000000000000000000000000000000000000000000000000000008152600401610e8191815260200190565b4260168190555081600c6000828254610f499190614f65565b9091555050600354610f66906001600160a01b0316333085612ba5565b60405182815233907f0a45ec0e27527fa1519b691bab30b4fedbc1da4b3d04ba9d3663f1696be541049060200160405180910390a25050565b7f80bb2b638cc20bc4d0a60d66940f3ab4a00c1d7b313497ca82fb0b4ab00793008054606091908190610fd190614f8b565b80601f0160208091040260200160405190810160405280929190818152602001828054610ffd90614f8b565b801561104a5780601f1061101f5761010080835404028352916020019161104a565b820191906000526020600020905b81548152906001019060200180831161102d57829003601f168201915b505050505091505090565b600061106082612bde565b5060008281527f80bb2b638cc20bc4d0a60d66940f3ab4a00c1d7b313497ca82fb0b4ab007930460205260409020546001600160a01b0316610e3c565b610dba828233612c36565b60006003600b5460ff1660038111156110c3576110c3614a6e565b1415905090565b600180600b5460ff1660038111156110e4576110e4614a6e565b1461110957600b54604051632812aa8760e01b8152610e819160ff1690600401614f41565b600b5461010090046001600160f81b031660009081526010602090815260408083208151606081018352815467ffffffffffffffff8082168352600160401b90910416938101849052600191820154928101929092525490929161116d9190614f65565b90508042101561119357604051633fa5f83f60e01b815260048101829052602401610e81565b815167ffffffffffffffff1660000361122c5760155460ff16156111e3576040517fadfd9cfa00000000000000000000000000000000000000000000000000000000815260040160405180910390fd5b600b546040516101009091046001600160f81b0316907ff6ca837b06142a107fde1fb0f9c3379c6d079aa7fa4de4437961f3eb6182221490600090a2611227612c43565b505050565b611227612ebe565b606080611241601761311b565b9150815167ffffffffffffffff81111561125d5761125d614b9a565b60405190808252806020026020018201604052801561129057816020015b606081526020019060019003908161127b5790505b50905060005b825181101561138b57601960008483815181106112b5576112b5614fbf565b60200260200101516001600160a01b03166001600160a01b0316815260200190815260200160002080546112e890614f8b565b80601f016020809104026020016040519081016040528092919081815260200182805461131490614f8b565b80156113615780601f1061133657610100808354040283529160200191611361565b820191906000526020600020905b81548152906001019060200180831161134457829003601f168201915b505050505082828151811061137857611378614fbf565b6020908102919091010152600101611296565b509091565b611398612abd565b60405147906000908190339084908381818185875af1925050503d80600081146113de576040519150601f19603f3d011682016040523d82523d6000602084013e6113e3565b606091505b50915091508161140c573383826040516359ed55cf60e01b8152600401610e8193929190614fd5565b60405183815233907f9c3cc23d5256459e240b53f903b58777839d0f7784189d876864a2fecd9415a29060200160405180910390a2505050565b600280600b5460ff16600381111561146057611460614a6e565b1461148557600b54604051632812aa8760e01b8152610e819160ff1690600401614f41565b6002546001600160a01b031633146114cb576040517f01c09680000000000000000000000000000000000000000000000000000000008152336004820152602401610e81565b600e546001600160d01b0316831461152557600e546040517faae75cf6000000000000000000000000000000000000000000000000000000008152600481018590526001600160d01b039091166024820152604401610e81565b6040805180820190915260008082526020909101819052600e81905561154a836117a3565b600b5460405191925061010090046001600160f81b0316907f4a2c5dc61d8caf543cef0b699bd08678003186170a4fff91cb694c4d9c1bdcad906115919083908590615006565b60405180910390a160006115a48361312f565b6001600160f81b038316600090815260106020526040902060010181905590506115cc612c43565b505050505050565b6001600160a01b0382166115fe57604051633250574960e11b815260006004820152602401610e81565b600061160b83833361316e565b9050836001600160a01b0316816001600160a01b031614611672576040517f64283d7b0000000000000000000000000000000000000000000000000000000081526001600160a01b0380861660048301526024820184905282166044820152606401610e81565b50505050565b601160205282600052604060002060205281600052604060002081815481106116a057600080fd5b9060005260206000200160009250925050505481565b6116be612abd565b600180600b5460ff1660038111156116d8576116d8614a6e565b146116fd57600b54604051632812aa8760e01b8152610e819160ff1690600401614f41565b60155460ff161561173a576040517fe76abfdd00000000000000000000000000000000000000000000000000000000815260040160405180910390fd5b60158054600160ff19909116179055600b546040516101009091046001600160f81b0316907f829544d99a172af93bb3c414178477bcc580d534eccd4d02c7a49225f7889ef890600090a250565b611227838383604051806020016040528060008152506127fd565b600054606090610e3c9060ff600160a01b8204811691600160a81b900416846131d3565b6002546009546040517f10b0d1d200000000000000000000000000000000000000000000000000000000815260009283926001600160a01b03909116916310b0d1d29161181a9160040190815260200190565b6040805180830381865afa158015611836573d6000803e3d6000fd5b505050506040513d601f19601f8201168201806040525081019061185a9190615028565b5092915050565b600054606090610e3c90600160a01b900460ff168361327c565b60008290036118b6576040517fc01b5d3b00000000000000000000000000000000000000000000000000000000815260040160405180910390fd5b60045482906000906118c990839061504c565b6003549091506118e4906001600160a01b0316333084612ba5565b6000612710600554836118f7919061504c565b6119019190615063565b905060008060009054906101000a90046001600160a01b03166001600160a01b0316634ccb20c06040518163ffffffff1660e01b8152600401602060405180830381865afa158015611957573d6000803e3d6000fd5b505050506040513d601f19601f8201168201806040525081019061197b9190615085565b905060006001600160a01b038216156119ac5761271061199d6101f48661504c565b6119a79190615063565b6119af565b60005b90506000816119be8587614f78565b6119c89190614f78565b600b5490915061010090046001600160f81b03166001600160a01b038816611a075784601460008282546119fc9190614f65565b90915550611a709050565b611a12601789613336565b611a53576040517ffce398aa0000000000000000000000000000000000000000000000000000000081526001600160a01b0389166004820152602401610e81565b8415611a7057600354611a70906001600160a01b03168987612b31565b6001600160a01b03881615611a855787611a87565b305b6001600160a01b0316817f1efc214ec14d081e74ac22debc8d48a010f4f1f30ad4733c94e7c38ff90038e287604051611ac291815260200190565b60405180910390a38215611b2b57600354611ae7906001600160a01b03168585612b31565b836001600160a01b03167fb87e607f6030a23ed9b7dac1a717610f3a3b07325269f18808ba763bdcefe7ae84604051611b2291815260200190565b60405180910390a25b81600c6000828254611b3d9190614f65565b90915550611b4d90508a8a613358565b50505050505050505050565b6000610e3c82612bde565b611b6c613764565b600280600b5460ff166003811115611b8657611b86614a6e565b14611bab57600b54604051632812aa8760e01b8152610e819160ff1690600401614f41565b60408051808201909152600e546001600160d01b0381168252600160d01b900465ffffffffffff1660208201819052600003611c13576040517f9313240d00000000000000000000000000000000000000000000000000000000815260040160405180910390fd5b6020810151611c2490610e106150a2565b65ffffffffffff164210611c3f57611c3a612ebe565b611c74565b6020810151611c5090610e106150a2565b604051633fa5f83f60e01b815265ffffffffffff9091166004820152602401610e81565b5050611c9f60017f9b779b17422d0df92223018b32b4d1fa46e071723d6817e2486d003becc55f0055565b565b60006001600b5460ff166003811115611cbc57611cbc614a6e565b14158015611ce157506003600b5460ff166003811115611cde57611cde614a6e565b14155b15611d0657600b54604051632812aa8760e01b8152610e819160ff1690600401614f41565b60008281527f80bb2b638cc20bc4d0a60d66940f3ab4a00c1d7b313497ca82fb0b4ab007930260205260409020546001600160a01b031680611d5e57604051637e27328960e01b815260048101849052602401610e81565b6000838152600f602090815260409182902082518084019093528054835260019081015491830191909152600b5461010090046001600160f81b031690611da59082614f78565b825114611de1576040517f2506adb500000000000000000000000000000000000000000000000000000000815260048101869052602401610e81565b815160009081526010602090815260408083208151606081018352815467ffffffffffffffff8082168352600160401b9091041681850152600190910154818301819052865185526011845282852081865290935292205480158015611e5d57506003600b5460ff166003811115611e5b57611e5b614a6e565b145b15611ef757600a54600d54611e729190615063565b965086600d6000828254611e869190614f78565b90915550611e959050886137ed565b600354611eac906001600160a01b03168789612b31565b8451604080516001600160a01b0389168152602081018a90528a917f1526f29dc67f9d8967789be9aa23179c7826c4a1c063c5834b5c4c495aaa07cb910160405180910390a3612084565b846020015182036120425760008111611f1257611f126150c0565b60008881526013602052604090205460ff1615611f5e576040517fb3167bfa00000000000000000000000000000000000000000000000000000000815260048101899052602401610e81565b8451600090815260126020526040902054611f798183614f78565b600d54611f869190615063565b975087600d6000828254611f9a9190614f78565b90915550506000898152601360209081526040808320805460ff191660019081179091558951845260129092528220805491929091611fda908490614f65565b9091555050600354611ff6906001600160a01b0316888a612b31565b8551604080516001600160a01b038a168152602081018b90528b917f38eb4599d8dccd3edd335a3f80fea5dbaae4b6cb0db2866060f333f6796db323910160405180910390a350612084565b60208501516040517f6ddaa595000000000000000000000000000000000000000000000000000000008152600481019190915260248101839052604401610e81565b505050505050919050565b60007f80bb2b638cc20bc4d0a60d66940f3ab4a00c1d7b313497ca82fb0b4ab00793006001600160a01b0383166120f5576040517f89c62b6400000000000000000000000000000000000000000000000000000000815260006004820152602401610e81565b6001600160a01b039092166000908152600390920160205250604090205490565b61211e612abd565b611c9f6000613828565b612130612abd565b61213981613899565b50565b6019602052600090815260409020805461215590614f8b565b80601f016020809104026020016040519081016040528092919081815260200182805461218190614f8b565b80156121ce5780601f106121a3576101008083540402835291602001916121ce565b820191906000526020600020905b8154815290600101906020018083116121b157829003601f168201915b505050505081565b7f80bb2b638cc20bc4d0a60d66940f3ab4a00c1d7b313497ca82fb0b4ab007930180546060917f80bb2b638cc20bc4d0a60d66940f3ab4a00c1d7b313497ca82fb0b4ab007930091610fd190614f8b565b610dba3383836139b3565b7ff0c57e16840df040f15088dc2f81fe391c3923bec73e23a9662efc9c229c6a008054600160401b810460ff16159067ffffffffffffffff166000811580156122785750825b905060008267ffffffffffffffff1660011480156122955750303b155b9050811580156122a3575080155b156122da576040517ff92ee8a900000000000000000000000000000000000000000000000000000000815260040160405180910390fd5b845467ffffffffffffffff19166001178555831561230957845468ff00000000000000001916600160401b1785555b855161231490613a8f565b61232686602001518760400151613aa0565b61232e613ab2565b600080546001600160a01b03191633179055606086015160ff16158061235b57506020866060015160ff16115b1561238457606086015160405163114e92d560e01b815260ff9091166004820152602401610e81565b6060860151600080547fffffffffffffffffffffff00ffffffffffffffffffffffffffffffffffffffff16600160a01b60ff938416908102919091179091556080880151909116101561240e5760808601516040517f6973f43c00000000000000000000000000000000000000000000000000000000815260ff9091166004820152602401610e81565b8560800151600060156101000a81548160ff021916908360ff1602179055506102588660a001511015612475578560a001516040517faf0b9fe1000000000000000000000000000000000000000000000000000000008152600401610e8191815260200190565b60a086015160015560c08601516000036124c3578560c001516040517fb05276a5000000000000000000000000000000000000000000000000000000008152600401610e8191815260200190565b60c086015160045560e0860151612710906124e1906101f490614f65565b1115612519576040517f64e1115400000000000000000000000000000000000000000000000000000000815260040160405180910390fd5b60e08601516005556101008601516001600160a01b0316612578576101008601516040517f5e280fa50000000000000000000000000000000000000000000000000000000081526001600160a01b039091166004820152602401610e81565b610100860151600280546001600160a01b0319166001600160a01b03928316179055610120870151166125e9576101208601516040517f4d05c0480000000000000000000000000000000000000000000000000000000081526001600160a01b039091166004820152602401610e81565b610120860151600380546001600160a01b0319166001600160a01b039092169190911790556101408601516006819055610160870151600755158061262e5750600754155b15612674576006546007546040517f0758bd7700000000000000000000000000000000000000000000000000000000815260048101929092526024820152604401610e81565b612682866101800151613899565b6207a120600955600b8054600160ff199091161790556040805160608101825260008082524267ffffffffffffffff9081166020808501918252948401838152928052601090945291517f6e0956cda88cad152e89927e53611735b61a5c762d1428573c6931b0a5efcb01805494518416600160401b027fffffffffffffffffffffffffffffffff000000000000000000000000000000009095169190931617929092179055517f6e0956cda88cad152e89927e53611735b61a5c762d1428573c6931b0a5efcb025583156115cc57845468ff000000000000000019168555604051600181527fc7f505b2f371ae2175ee4913f4499e1f2633a7b5936321eed1cdaeb6115181d29060200160405180910390a1505050505050565b6127a5612abd565b6014805460009091556003546127c5906001600160a01b03163383612b31565b60405181815233907f3f9a693150e48179f93c02c3ec37f52f8280a293b6096e6f5496c22f315b77c29060200160405180910390a250565b6128088484846115d4565b61167284848484613ac2565b606061281f82612bde565b506008546001600160a01b0316636de31974612839610f9f565b60008054868252600f602052604090912060010154869160ff600160a81b820481169261287092600160a01b90049091169061327c565b6040518563ffffffff1660e01b815260040161288f94939291906150d6565b600060405180830381865afa1580156128ac573d6000803e3d6000fd5b505050506040513d6000823e601f3d908101601f19168201604052610e3c9190810190615115565b60006128de612abd565b81156129f857600083900361291f576040517f7f643eca00000000000000000000000000000000000000000000000000000000815260040160405180910390fd5b60008484604051612931929190615183565b604080519182900382206001600160a01b0389166000908152601960205291909120909161295f9190615193565b60408051918290039091206001600160a01b0389166000908152601960205291909120911415915061299285878361524f565b5061299e601787613beb565b806129a65750805b915081156129f257856001600160a01b03167fcb1eea13c18bd5e64b599fb0cebb7b4fef3c108a8c964e80b3a930542cd0828086866040516129e992919061530f565b60405180910390a25b50612a61565b612a03601786613c00565b90508015612a61576001600160a01b0385166000908152601960205260408120612a2c91614777565b6040516001600160a01b038616907f72977dad29432f655f11c2f0e72ef5124bb9ade7a512fb7a43a9f504df22342890600090a25b949350505050565b612a71612abd565b6001600160a01b038116612ab4576040517f1e4fbdf700000000000000000000000000000000000000000000000000000000815260006004820152602401610e81565b61213981613828565b33612aef7f9016d09d72d40fdae2fd8ceac6b6234c7706214fd39c1cd1e609a0528c199300546001600160a01b031690565b6001600160a01b031614611c9f576040517f118cdaa7000000000000000000000000000000000000000000000000000000008152336004820152602401610e81565b6040516001600160a01b0383811660248301526044820183905261122791859182169063a9059cbb906064015b604051602081830303815290604052915060e01b6020820180517bffffffffffffffffffffffffffffffffffffffffffffffffffffffff8381831617835250505050613c15565b6040516001600160a01b0384811660248301528381166044830152606482018390526116729186918216906323b872dd90608401612b5e565b60008181527f80bb2b638cc20bc4d0a60d66940f3ab4a00c1d7b313497ca82fb0b4ab007930260205260408120546001600160a01b031680610e3c57604051637e27328960e01b815260048101849052602401610e81565b6112278383836001613c91565b6003600b5460ff166003811115612c5c57612c5c614a6e565b03612c6957612c696150c0565b600b546015546101009091046001600160f81b03169060009060ff1615612c9257506003612c96565b5060015b6040518060400160405280826003811115612cb357612cb3614a6e565b8152602001612cc384600161533e565b6001600160f81b031690528051600b8054909190829060ff19166001836003811115612cf157612cf1614a6e565b02179055506020919091015181546001600160f81b039091166101000260ff9091161790554260106000612d2685600161533e565b6001600160f81b03908116825260208083019390935260409182016000908120805467ffffffffffffffff96909616600160401b027fffffffffffffffffffffffffffffffff0000000000000000ffffffffffffffff909616959095179094558516835260108252808320600101546011835281842081855290925290912054600d54600c5482158015612dcc57506003856003811115612dc957612dc9614a6e565b14155b15612e47576000612ddd8284614f65565b600c8190556000600d819055604080518681526020810186905290810182905260608101839052919250906001600160f81b038916907f59a23cf10d003eab0c59d7c706e3b4b20aeddabe02c2ae924bd12cfb8c3e4b649060800160405180910390a250506115cc565b600080612e548385614f65565b6000600c55600d8190556040805186815260208101869052908101829052606081018490529091506001600160f81b038916907f59a23cf10d003eab0c59d7c706e3b4b20aeddabe02c2ae924bd12cfb8c3e4b649060800160405180910390a25050505050505050565b600b805460ff191660021790556000612ed56117c7565b905080341115612fa2576000612eeb8234614f78565b9050600080336001600160a01b03168360405160006040518083038185875af1925050503d8060008114612f3b576040519150601f19603f3d011682016040523d82523d6000602084013e612f40565b606091505b509150915081612f69573383826040516359ed55cf60e01b8152600401610e8193929190614fd5565b60405183815233907f2c003babc9bab745cd44b6d4ba45ddf77bdbda4a59d52e1fc805dfb0d8895c7e9060200160405180910390a25050505b80471015612fe5576040517f96fbe4dd00000000000000000000000000000000000000000000000000000000815247600482015260248101829052604401610e81565b6002546000906001600160a01b0316631f53cf048361300542601e614f65565b6009546040516001600160e01b031960e086901b1681526004810192909252602482015260440160206040518083038185885af115801561304a573d6000803e3d6000fd5b50505050506040513d601f19601f8201168201806040525081019061306f9190614f28565b90506001600160d01b038111156130b5576040517fa6110e8400000000000000000000000000000000000000000000000000000000815260048101829052602401610e81565b6040805180820182526001600160d01b0383168082524265ffffffffffff166020928301819052600160d01b028117600e5591519182527f972eaf54fa9b013ff4e1d9cef91f0e92e7d491984c0490809dbafea6d1e16b92910160405180910390a15050565b6060600061312883613e10565b9392505050565b60008060005b835181101561185a5783818151811061315057613150614fbf565b602002602001015160ff166001901b82179150806001019050613135565b60008061317c858585613e6c565b90506001600160a01b0381166131a5576001600a600082825461319f9190614f65565b90915550505b6001600160a01b038516612a61576001600a60008282546131c69190614f78565b9091555050949350505050565b60608360ff1667ffffffffffffffff8111156131f1576131f1614b9a565b60405190808252806020026020018201604052801561321a578160200160208202803683370190505b50905060005b8460ff168110156132725761323b818560ff1685600c613fad565b613246906001614f65565b82828151811061325857613258614fbf565b60ff90921660209283029190910190910152600101613220565b50612a6181614109565b60608260ff1667ffffffffffffffff81111561329a5761329a614b9a565b6040519080825280602002602001820160405280156132c3578160200160208202803683370190505b5090506000805b61010081101561332e57600184821c8116148015613315578184846132ee8161535d565b95508151811061330057613300614fbf565b602002602001019060ff16908160ff16815250505b8560ff168303613325575061332e565b506001016132ca565b505092915050565b6001600160a01b03811660009081526001830160205260408120541515613128565b600180600b5460ff16600381111561337257613372614a6e565b1461339757600b54604051632812aa8760e01b8152610e819160ff1690600401614f41565b60408051808201909152600b80546000929190829060ff1660038111156133c0576133c0614a6e565b60038111156133d1576133d1614a6e565b8152905461010090046001600160f81b0390811660209283015282820151166000818152601083526040908190208151606081018352815467ffffffffffffffff808216808452600160401b909204169582019590955260019091015491810191909152929350918591613446908390615376565b6000848152601060205260408120805467ffffffffffffffff191667ffffffffffffffff93909316929092179091558054600a54600160a01b820460ff90811693600160a81b90930416919061349d906001614f65565b905060005b858110156136f95760008b8b838181106134be576134be614fbf565b90506020028101906134d09190615396565b6134de9060208101906147ea565b905060008c8c848181106134f4576134f4614fbf565b90506020028101906135069190615396565b6135149060208101906153b6565b80806020026020016040519081016040528093929190818152602001838360200280828437600092019190915250508251929350505086148015906135595750805115155b1561357c57805160405163114e92d560e01b8152600401610e8191815260200190565b80511561363d576000805b8781101561363a5760008382815181106135a3576135a3614fbf565b602002602001015190508260ff168160ff16116135ee57836040517f5f863765000000000000000000000000000000000000000000000000000000008152600401610e819190614a5b565b878160ff161115613630576040517f9fb72f1700000000000000000000000000000000000000000000000000000000815260ff82166004820152602401610e81565b9150600101613587565b50505b60006136498486614f65565b905060006136568361312f565b6040805180820182528d815260208082018481526000878152600f83528481209351845590516001938401558f815260118252838120858252825283812080549384018155815220018490555190915082906001600160a01b038616908d907f38f7010e1714c2785562f89e75c8d417cb1908bd47a9e84cf5db470ad60c44cf906136e2908890614a5b565b60405180910390a4505050508060010190506134a2565b5060005b858110156137575760008b8b8381811061371957613719614fbf565b905060200281019061372b9190615396565b6137399060208101906147ea565b905061374e816137498486614f65565b614218565b506001016136fd565b5050505050505050505050565b7f9b779b17422d0df92223018b32b4d1fa46e071723d6817e2486d003becc55f008054600119016137c1576040517f3ee5aeb500000000000000000000000000000000000000000000000000000000815260040160405180910390fd5b60029055565b60017f9b779b17422d0df92223018b32b4d1fa46e071723d6817e2486d003becc55f0055565b60006137fc600083600061316e565b90506001600160a01b038116610dba57604051637e27328960e01b815260048101839052602401610e81565b7f9016d09d72d40fdae2fd8ceac6b6234c7706214fd39c1cd1e609a0528c19930080546001600160a01b031981166001600160a01b03848116918217845560405192169182907f8be0079c531659141344cd1fd0a4f28419497f9722a3daafe3b4186f6b6457e090600090a3505050565b6040516301ffc9a760e01b81527f86ff10540000000000000000000000000000000000000000000000000000000060048201526000906001600160a01b038316906301ffc9a790602401602060405180830381865afa158015613900573d6000803e3d6000fd5b505050506040513d601f19601f820116820180604052508101906139249190615407565b905080613968576040517f64fd73040000000000000000000000000000000000000000000000000000000081526001600160a01b0383166004820152602401610e81565b600880546001600160a01b0319166001600160a01b0384169081179091556040517fedcb36970d7ce6b74f0c9604ab8341b69c3d0f83941997475fdd1042ab6d15fb90600090a25050565b7f80bb2b638cc20bc4d0a60d66940f3ab4a00c1d7b313497ca82fb0b4ab00793006001600160a01b038316613a1f576040517f5b08ba180000000000000000000000000000000000000000000000000000000081526001600160a01b0384166004820152602401610e81565b6001600160a01b038481166000818152600584016020908152604080832094881680845294825291829020805460ff191687151590811790915591519182527f17307eab39ab6107e8899845ad3d59bd9653f200f220920489ca2b5937696c31910160405180910390a350505050565b613a97614232565b61213981614294565b613aa8614232565b610dba828261429c565b613aba614232565b611c9f6142df565b6001600160a01b0383163b1561167257604051630a85bd0160e11b81526001600160a01b0384169063150b7a0290613b04903390889087908790600401615424565b6020604051808303816000875af1925050508015613b3f575060408051601f3d908101601f19168201909252613b3c9181019061545b565b60015b613ba8573d808015613b6d576040519150601f19603f3d011682016040523d82523d6000602084013e613b72565b606091505b508051600003613ba057604051633250574960e11b81526001600160a01b0385166004820152602401610e81565b805181602001fd5b6001600160e01b03198116630a85bd0160e11b14613be457604051633250574960e11b81526001600160a01b0385166004820152602401610e81565b5050505050565b6000613128836001600160a01b0384166142e7565b6000613128836001600160a01b038416614336565b6000613c2a6001600160a01b03841683614429565b90508051600014158015613c4f575080806020019051810190613c4d9190615407565b155b15611227576040517f5274afe70000000000000000000000000000000000000000000000000000000081526001600160a01b0384166004820152602401610e81565b7f80bb2b638cc20bc4d0a60d66940f3ab4a00c1d7b313497ca82fb0b4ab00793008180613cc657506001600160a01b03831615155b15613ddf576000613cd685612bde565b90506001600160a01b03841615801590613d025750836001600160a01b0316816001600160a01b031614155b8015613d5357506001600160a01b0380821660009081527f80bb2b638cc20bc4d0a60d66940f3ab4a00c1d7b313497ca82fb0b4ab0079305602090815260408083209388168352929052205460ff16155b15613d95576040517fa9fbf51f0000000000000000000000000000000000000000000000000000000081526001600160a01b0385166004820152602401610e81565b8215613ddd5784866001600160a01b0316826001600160a01b03167f8c5be1e5ebec7d5bd14f71427d1e84f3dd0314c0f7b2291e5b200ac8c7c3b92560405160405180910390a45b505b600093845260040160205250506040902080546001600160a01b0319166001600160a01b0392909216919091179055565b606081600001805480602002602001604051908101604052809291908181526020018280548015613e6057602002820191906000526020600020905b815481526020019060010190808311613e4c575b50505050509050919050565b60008281527f80bb2b638cc20bc4d0a60d66940f3ab4a00c1d7b313497ca82fb0b4ab007930260205260408120547f80bb2b638cc20bc4d0a60d66940f3ab4a00c1d7b313497ca82fb0b4ab0079300906001600160a01b0390811690841615613eda57613eda818587614437565b6001600160a01b03811615613f1a57613ef7600086600080613c91565b6001600160a01b0381166000908152600383016020526040902080546000190190555b6001600160a01b03861615613f4b576001600160a01b03861660009081526003830160205260409020805460010190555b600085815260028301602052604080822080546001600160a01b0319166001600160a01b038a811691821790925591518893918516917fddf252ad1be2c89b69c2b068fc378daa952ba7f163c4a11628f55a4df523b3ef91a495945050505050565b6000831580613fbc5750838510155b80613fca5750816001166001145b15614001576040517ff34cfab600000000000000000000000000000000000000000000000000000000815260040160405180910390fd5b614053565b60006003821160018114614029576001831519161561402457600191505b61404d565b829150600160028404015b8281101561404b5791506002828404830104614034565b505b50919050565b61405c84614006565b6000856002830a146001811461409857600183016fffffffffffffffffffffffffffffffff81111561408d57600080fd5b6002900a915061409c565b8691505b506140a681614006565b915050604051608081016040528460408201528560608201525b81870682880460005b868110156140f05781845260208401819052608084209192909101849006906001016140c9565b508302019650858710156140c057509495945050505050565b805160609060015b8181101561421057600084828151811061412d5761412d614fbf565b6020026020010151905060006001836141469190615478565b90505b60008112158015614178575085818151811061416757614167614fbf565b602002602001015160ff168260ff16105b156141d75785818151811061418f5761418f614fbf565b6020026020010151868260016141a59190615498565b815181106141b5576141b5614fbf565b60ff909216602092830291909101909101526141d0816154b8565b9050614149565b81866141e4836001615498565b815181106141f4576141f4614fbf565b60ff909216602092830291909101909101525050600101614111565b509192915050565b610dba8282604051806020016040528060008152506144b4565b7ff0c57e16840df040f15088dc2f81fe391c3923bec73e23a9662efc9c229c6a0054600160401b900460ff16611c9f576040517fd7e6bcf800000000000000000000000000000000000000000000000000000000815260040160405180910390fd5b612a71614232565b6142a4614232565b7f80bb2b638cc20bc4d0a60d66940f3ab4a00c1d7b313497ca82fb0b4ab0079300806142d084826154f1565b506001810161167283826154f1565b6137c7614232565b600081815260018301602052604081205461432e57508154600181810184556000848152602080822090930184905584548482528286019093526040902091909155610e3c565b506000610e3c565b6000818152600183016020526040812054801561441f57600061435a600183614f78565b855490915060009061436e90600190614f78565b90508082146143d357600086600001828154811061438e5761438e614fbf565b90600052602060002001549050808760000184815481106143b1576143b1614fbf565b6000918252602080832090910192909255918252600188019052604090208390555b85548690806143e4576143e46155b0565b600190038181906000526020600020016000905590558560010160008681526020019081526020016000206000905560019350505050610e3c565b6000915050610e3c565b6060613128838360006144cb565b614442838383614581565b611227576001600160a01b03831661447057604051637e27328960e01b815260048101829052602401610e81565b6040517f177e802f0000000000000000000000000000000000000000000000000000000081526001600160a01b038316600482015260248101829052604401610e81565b6144be8383614642565b6112276000848484613ac2565b606081471015614509576040517fcd786059000000000000000000000000000000000000000000000000000000008152306004820152602401610e81565b600080856001600160a01b0316848660405161452591906155c6565b60006040518083038185875af1925050503d8060008114614562576040519150601f19603f3d011682016040523d82523d6000602084013e614567565b606091505b50915091506145778683836146c0565b9695505050505050565b60006001600160a01b03831615801590612a615750826001600160a01b0316846001600160a01b031614806145fa57506001600160a01b0380851660009081527f80bb2b638cc20bc4d0a60d66940f3ab4a00c1d7b313497ca82fb0b4ab0079305602090815260408083209387168352929052205460ff165b80612a6157505060009081527f80bb2b638cc20bc4d0a60d66940f3ab4a00c1d7b313497ca82fb0b4ab007930460205260409020546001600160a01b03908116911614919050565b6001600160a01b03821661466c57604051633250574960e11b815260006004820152602401610e81565b600061467a8383600061316e565b90506001600160a01b03811615611227576040517f73c6ac6e00000000000000000000000000000000000000000000000000000000815260006004820152602401610e81565b6060826146d5576146d082614735565b613128565b81511580156146ec57506001600160a01b0384163b155b1561472e576040517f9996b3150000000000000000000000000000000000000000000000000000000081526001600160a01b0385166004820152602401610e81565b5080613128565b8051156147455780518082602001fd5b6040517f1425ea4200000000000000000000000000000000000000000000000000000000815260040160405180910390fd5b50805461478390614f8b565b6000825580601f10614793575050565b601f01602090049060005260206000209081019061213991905b808211156147c157600081556001016147ad565b5090565b6001600160a01b038116811461213957600080fd5b80356147e5816147c5565b919050565b6000602082840312156147fc57600080fd5b8135613128816147c5565b6001600160e01b03198116811461213957600080fd5b60006020828403121561482f57600080fd5b813561312881614807565b60006020828403121561484c57600080fd5b5035919050565b60005b8381101561486e578181015183820152602001614856565b50506000910152565b6000815180845261488f816020860160208601614853565b601f01601f19169290920160200192915050565b6020815260006131286020830184614877565b600080604083850312156148c957600080fd5b82356148d4816147c5565b946020939093013593505050565b6040808252835190820181905260009060208501906060840190835b818110156149255783516001600160a01b03168352602093840193909201916001016148fe565b50508381036020850152809150845180825260208201925060208160051b8301016020870160005b8381101561497f57601f19858403018652614969838351614877565b602096870196909350919091019060010161494d565b509098975050505050505050565b600080604083850312156149a057600080fd5b50508035926020909101359150565b6000806000606084860312156149c457600080fd5b83356149cf816147c5565b925060208401356149df816147c5565b929592945050506040919091013590565b600080600060608486031215614a0557600080fd5b505081359360208301359350604090920135919050565b600081518084526020840193506020830160005b82811015614a5157815160ff16865260209586019590910190600101614a30565b5093949350505050565b6020815260006131286020830184614a1c565b634e487b7160e01b600052602160045260246000fd5b60048110614aa257634e487b7160e01b600052602160045260246000fd5b9052565b60408101614ab48285614a84565b6001600160f81b03831660208301529392505050565b600080600060408486031215614adf57600080fd5b833567ffffffffffffffff811115614af657600080fd5b8401601f81018613614b0757600080fd5b803567ffffffffffffffff811115614b1e57600080fd5b8660208260051b8401011115614b3357600080fd5b602091820194509250840135614b48816147c5565b809150509250925092565b801515811461213957600080fd5b60008060408385031215614b7457600080fd5b8235614b7f816147c5565b91506020830135614b8f81614b53565b809150509250929050565b634e487b7160e01b600052604160045260246000fd5b6040516101a0810167ffffffffffffffff81118282101715614bd457614bd4614b9a565b60405290565b604051601f8201601f1916810167ffffffffffffffff81118282101715614c0357614c03614b9a565b604052919050565b600067ffffffffffffffff821115614c2557614c25614b9a565b50601f01601f191660200190565b6000614c46614c4184614c0b565b614bda565b9050828152838383011115614c5a57600080fd5b828260208301376000602084830101529392505050565b600082601f830112614c8257600080fd5b61312883833560208501614c33565b803560ff811681146147e557600080fd5b600060208284031215614cb457600080fd5b813567ffffffffffffffff811115614ccb57600080fd5b82016101a08185031215614cde57600080fd5b614ce6614bb0565b614cef826147da565b8152602082013567ffffffffffffffff811115614d0b57600080fd5b614d1786828501614c71565b602083015250604082013567ffffffffffffffff811115614d3757600080fd5b614d4386828501614c71565b604083015250614d5560608301614c91565b6060820152614d6660808301614c91565b608082015260a0828101359082015260c0808301359082015260e08083013590820152614d9661010083016147da565b610100820152614da961012083016147da565b61012082015261014082810135908201526101608083013590820152614dd261018083016147da565b610180820152949350505050565b60008060008060808587031215614df657600080fd5b8435614e01816147c5565b93506020850135614e11816147c5565b925060408501359150606085013567ffffffffffffffff811115614e3457600080fd5b8501601f81018713614e4557600080fd5b614e5487823560208401614c33565b91505092959194509250565b60008060008060608587031215614e7657600080fd5b8435614e81816147c5565b9350602085013567ffffffffffffffff811115614e9d57600080fd5b8501601f81018713614eae57600080fd5b803567ffffffffffffffff811115614ec557600080fd5b876020828401011115614ed757600080fd5b602091909101935091506040850135614eef81614b53565b939692955090935050565b60008060408385031215614f0d57600080fd5b8235614f18816147c5565b91506020830135614b8f816147c5565b600060208284031215614f3a57600080fd5b5051919050565b60208101610e3c8284614a84565b634e487b7160e01b600052601160045260246000fd5b80820180821115610e3c57610e3c614f4f565b81810381811115610e3c57610e3c614f4f565b600181811c90821680614f9f57607f821691505b60208210810361404d57634e487b7160e01b600052602260045260246000fd5b634e487b7160e01b600052603260045260246000fd5b6001600160a01b0384168152826020820152606060408201526000614ffd6060830184614877565b95945050505050565b6001600160f81b0383168152604060208201526000612a616040830184614a1c565b6000806040838503121561503b57600080fd5b505080516020909101519092909150565b8082028115828204841417610e3c57610e3c614f4f565b60008261508057634e487b7160e01b600052601260045260246000fd5b500490565b60006020828403121561509757600080fd5b8151613128816147c5565b65ffffffffffff8181168382160190811115610e3c57610e3c614f4f565b634e487b7160e01b600052600160045260246000fd5b6080815260006150e96080830187614877565b85602084015260ff85166040840152828103606084015261510a8185614a1c565b979650505050505050565b60006020828403121561512757600080fd5b815167ffffffffffffffff81111561513e57600080fd5b8201601f8101841361514f57600080fd5b805161515d614c4182614c0b565b81815285602083850101111561517257600080fd5b614ffd826020830160208601614853565b8183823760009101908152919050565b60008083546151a181614f8b565b6001821680156151b857600181146151cd576151fd565b60ff19831686528115158202860193506151fd565b86600052602060002060005b838110156151f5578154888201526001909101906020016151d9565b505081860193505b509195945050505050565b601f82111561122757806000526020600020601f840160051c8101602085101561522f5750805b601f840160051c820191505b81811015613be4576000815560010161523b565b67ffffffffffffffff83111561526757615267614b9a565b61527b836152758354614f8b565b83615208565b6000601f8411600181146152af57600085156152975750838201355b600019600387901b1c1916600186901b178355613be4565b600083815260209020601f19861690835b828110156152e057868501358255602094850194600190920191016152c0565b50868210156152fd5760001960f88860031b161c19848701351681555b505060018560011b0183555050505050565b60208152816020820152818360408301376000818301604090810191909152601f909201601f19160101919050565b6001600160f81b038181168382160190811115610e3c57610e3c614f4f565b60006001820161536f5761536f614f4f565b5060010190565b67ffffffffffffffff8181168382160190811115610e3c57610e3c614f4f565b60008235603e198336030181126153ac57600080fd5b9190910192915050565b6000808335601e198436030181126153cd57600080fd5b83018035915067ffffffffffffffff8211156153e857600080fd5b6020019150600581901b360382131561540057600080fd5b9250929050565b60006020828403121561541957600080fd5b815161312881614b53565b6001600160a01b03851681526001600160a01b03841660208201528260408201526080606082015260006145776080830184614877565b60006020828403121561546d57600080fd5b815161312881614807565b818103600083128015838313168383128216171561185a5761185a614f4f565b808201828112600083128015821682158216171561332e5761332e614f4f565b60007f800000000000000000000000000000000000000000000000000000000000000082036154e9576154e9614f4f565b506000190190565b815167ffffffffffffffff81111561550b5761550b614b9a565b61551f816155198454614f8b565b84615208565b6020601f821160018114615553576000831561553b5750848201515b600019600385901b1c1916600184901b178455613be4565b600084815260208120601f198516915b828110156155835787850151825560209485019460019092019101615563565b50848210156155a15786840151600019600387901b60f8161c191681555b50505050600190811b01905550565b634e487b7160e01b600052603160045260246000fd5b600082516153ac81846020870161485356fea26469706673582212204114c2457815a05022814c706a3e9de38bbf96498cf4d889a195ff362a724b4d64736f6c634300081b0033",
  "linkReferences": {},
  "deployedLinkReferences": {}
}