{
  "_format": "hh-sol-artifact-1",
  "contractName": "TicketSVGRenderer",
  "sourceName": "contracts/lottopgf/periphery/TicketSVGRenderer.sol",
  "abi": [
    {
      "inputs": [],
      "name": "EmptyPicks",
      "type": "error"
    },
    {
      "inputs": [
        {
          "internalType": "uint8",
          "name": "pick",
          "type": "uint8"
        },
        {
          "internalType": "uint8",
          "name": "maxPick",
          "type": "uint8"
        }
      ],
      "name": "OutOfRange",
      "type": "error"
    },
    {
      "inputs": [
        {
          "internalType": "uint8[]",
          "name": "pick",
          "type": "uint8[]"
        }
      ],
      "name": "UnsortedPick",
      "type": "error"
    },
    {
      "inputs": [
        {
          "internalType": "string",
          "name": "name",
          "type": "string"
        },
        {
          "internalType": "uint8",
          "name": "maxPick",
          "type": "uint8"
        },
        {
          "internalType": "uint8[]",
          "name": "pick",
          "type": "uint8[]"
        }
      ],
      "name": "renderSVG",
      "outputs": [
        {
          "internalType": "string",
          "name": "",
          "type": "string"
        }
      ],
      "stateMutability": "pure",
      "type": "function"
    },
    {
      "inputs": [
        {
          "internalType": "string",
          "name": "name",
          "type": "string"
        },
        {
          "internalType": "uint256",
          "name": "tokenId",
          "type": "uint256"
        },
        {
          "internalType": "uint8",
          "name": "maxPick",
          "type": "uint8"
        },
        {
          "internalType": "uint8[]",
          "name": "pick",
          "type": "uint8[]"
        }
      ],
      "name": "renderTokenURI",
      "outputs": [
        {
          "internalType": "string",
          "name": "",
          "type": "string"
        }
      ],
      "stateMutability": "pure",
      "type": "function"
    },
    {
      "inputs": [
        {
          "internalType": "bytes4",
          "name": "interfaceId",
          "type": "bytes4"
        }
      ],
      "name": "supportsInterface",
      "outputs": [
        {
          "internalType": "bool",
          "name": "",
          "type": "bool"
        }
      ],
      "stateMutability": "view",
      "type": "function"
    }
  ],
  "bytecode": "0x6080604052348015600f57600080fd5b506111288061001f6000396000f3fe608060405234801561001057600080fd5b50600436106100415760003560e01c806301ffc9a7146100465780636de319741461006e578063eb1c09201461008e575b600080fd5b61005961005436600461070f565b6100a1565b60405190151581526020015b60405180910390f35b61008161007c3660046108af565b61013a565b6040516100659190610956565b61008161009c366004610989565b6101ab565b60007fffffffff0000000000000000000000000000000000000000000000000000000082167f86ff105400000000000000000000000000000000000000000000000000000000148061013457507f01ffc9a7000000000000000000000000000000000000000000000000000000007fffffffff000000000000000000000000000000000000000000000000000000008316145b92915050565b6060610182856101498661043a565b61015c6101578988886101ab565b6104da565b60405160200161016e93929190610a02565b6040516020818303038152906040526104da565b6040516020016101929190610b3c565b6040516020818303038152906040529050949350505050565b606060006101bd600560ff8616610b97565b156101c95760016101cc565b60005b60ff1660058560ff166101df9190610bc1565b6101e99190610bd5565b9050604b60006060815b8481101561036057601e600060ff8a16600561020f8186610be8565b6102199190610bd5565b11610225576005610234565b61023060058b610bff565b60ff165b905060005b818110156103455760008161024f600587610be8565b6102599190610bd5565b610264906001610bd5565b90508a51871080156102915750808b888151811061028457610284610c21565b602002602001015160ff16145b156102e9576102a1600188610bd5565b9650856102b76102b2866014610bd5565b61043a565b6102c56102b260068c610c37565b6040516020016102d793929190610c4a565b60405160208183030381529060405295505b856102f86102b2866014610bd5565b6103018a61043a565b61030a8461043a565b60405160200161031d9493929190610d31565b60408051601f19818403018152919052955061033a603285610bd5565b935050600101610239565b50610351602687610bd5565b955050508060010190506101f3565b50600061036e602686610be8565b61037990604b610bd5565b905060006103868261043a565b6040516020016103969190610e71565b60408051601f19818403018152828201909152600682527f3c2f7376673e00000000000000000000000000000000000000000000000000006020830152915060006103e08461043a565b8c866040516020016103f493929190610f29565b604051602081830303815290604052905082818360405160200161041a9392919061106f565b604051602081830303815290604052985050505050505050509392505050565b606060006104478361062d565b600101905060008167ffffffffffffffff81111561046757610467610758565b6040519080825280601f01601f191660200182016040528015610491576020820181803683370190505b5090508181016020015b600019017f3031323334353637383961626364656600000000000000000000000000000000600a86061a8153600a850494508461049b57509392505050565b606081516000036104f957505060408051602081019091526000815290565b60006040518060600160405280604081526020016110b360409139905060006003845160026105289190610bd5565b6105329190610bc1565b61053d906004610be8565b67ffffffffffffffff81111561055557610555610758565b6040519080825280601f01601f19166020018201604052801561057f576020820181803683370190505b509050600182016020820185865187015b808210156105eb576003820191508151603f8160121c168501518453600184019350603f81600c1c168501518453600184019350603f8160061c168501518453600184019350603f8116850151845350600183019250610590565b5050600386510660018114610607576002811461061a57610622565b603d6001830353603d6002830353610622565b603d60018303535b509195945050505050565b6000807a184f03e93ff9f4daa797ed6e38ed64bf6a1f0100000000000000008310610676577a184f03e93ff9f4daa797ed6e38ed64bf6a1f010000000000000000830492506040015b6d04ee2d6d415b85acef810000000083106106a2576d04ee2d6d415b85acef8100000000830492506020015b662386f26fc1000083106106c057662386f26fc10000830492506010015b6305f5e10083106106d8576305f5e100830492506008015b61271083106106ec57612710830492506004015b606483106106fe576064830492506002015b600a83106101345760010192915050565b60006020828403121561072157600080fd5b81357fffffffff000000000000000000000000000000000000000000000000000000008116811461075157600080fd5b9392505050565b634e487b7160e01b600052604160045260246000fd5b604051601f8201601f1916810167ffffffffffffffff8111828210171561079757610797610758565b604052919050565b600082601f8301126107b057600080fd5b813567ffffffffffffffff8111156107ca576107ca610758565b6107dd601f8201601f191660200161076e565b8181528460208386010111156107f257600080fd5b816020850160208301376000918101602001919091529392505050565b803560ff8116811461082057600080fd5b919050565b600082601f83011261083657600080fd5b813567ffffffffffffffff81111561085057610850610758565b8060051b6108606020820161076e565b9182526020818501810192908101908684111561087c57600080fd5b6020860192505b838310156108a5576108948361080f565b825260209283019290910190610883565b9695505050505050565b600080600080608085870312156108c557600080fd5b843567ffffffffffffffff8111156108dc57600080fd5b6108e88782880161079f565b945050602085013592506108fe6040860161080f565b9150606085013567ffffffffffffffff81111561091a57600080fd5b61092687828801610825565b91505092959194509250565b60005b8381101561094d578181015183820152602001610935565b50506000910152565b6020815260008251806020840152610975816040850160208701610932565b601f01601f19169190910160400192915050565b60008060006060848603121561099e57600080fd5b833567ffffffffffffffff8111156109b557600080fd5b6109c18682870161079f565b9350506109d06020850161080f565b9150604084013567ffffffffffffffff8111156109ec57600080fd5b6109f886828701610825565b9150509250925092565b7f7b226e616d65223a220000000000000000000000000000000000000000000000815260008451610a3a816009850160208901610932565b7f205469636b6574202300000000000000000000000000000000000000000000006009918401918201528451610a77816012840160208901610932565b6009818301019150507f222c20226465736372697074696f6e223a22504f57455242414c44204c4f4c2260098201527f2c2022696d616765223a2022000000000000000000000000000000000000000060298201527f646174613a696d6167652f7376672b786d6c3b6261736536342c00000000000060358201528351610b0581604f840160208801610932565b7f227d000000000000000000000000000000000000000000000000000000000000604f929091019182015260510195945050505050565b7f646174613a6170706c69636174696f6e2f6a736f6e3b6261736536342c000000815260008251610b7481601d850160208701610932565b91909101601d0192915050565b634e487b7160e01b600052601260045260246000fd5b600082610ba657610ba6610b81565b500690565b634e487b7160e01b600052601160045260246000fd5b600082610bd057610bd0610b81565b500490565b8082018082111561013457610134610bab565b808202811582820484141761013457610134610bab565b600060ff831680610c1257610c12610b81565b8060ff84160691505092915050565b634e487b7160e01b600052603260045260246000fd5b8181038181111561013457610134610bab565b60008451610c5c818460208901610932565b7f3c636972636c652063783d2700000000000000000000000000000000000000009083019081528451610c9681600c840160208901610932565b7f272063793d270000000000000000000000000000000000000000000000000000600c92909101918201528351610cd4816012840160208801610932565b7f2720723d27313527207374726f6b653d27726564272066696c6c3d276e6f6e65601292909101918201527f27202f3e00000000000000000000000000000000000000000000000000000000603282015260360195945050505050565b60008551610d43818460208a01610932565b7f3c7465787420783d2700000000000000000000000000000000000000000000009083019081528551610d7d816009840160208a01610932565b7f2720793d27000000000000000000000000000000000000000000000000000000600992909101918201528451610dbb81600e840160208901610932565b6009818301019150507f2720746578742d616e63686f723d276d6964646c652720666f6e742d66616d6960058201527f6c793d27417269616c2720666f6e742d73697a653d273136272066696c6c3d2760258201527f626c61636b273e0000000000000000000000000000000000000000000000000060458201528351610e4981604c840160208801610932565b610e65604c83830101661e17ba32bc3a1f60c91b815260070190565b98975050505050505050565b7f3c73766720786d6c6e733d27687474703a2f2f7777772e77332e6f72672f323081527f30302f737667272076657273696f6e3d27312e31272077696474683d2733303060208201527f27206865696768743d2700000000000000000000000000000000000000000000604082015260008251610ef581604a850160208701610932565b7f273e000000000000000000000000000000000000000000000000000000000000604a939091019283015250604c01919050565b7f3c726563742077696474683d2733303027206865696768743d27000000000000815260008451610f6181601a850160208901610932565b7f272066696c6c3d27776869746527207374726f6b653d27626c61636b27202f3e601a918401918201527f3c7465787420783d273135302720793d2733302720746578742d616e63686f72603a8201527f3d276d6964646c652720666f6e742d66616d696c793d27417269616c2720666f605a8201527f6e742d73697a653d2732302720666f6e742d7765696768743d27626f6c642720607a8201527f66696c6c3d27626c61636b273e00000000000000000000000000000000000000609a82015284516110368160a7840160208901610932565b601a81830101915050661e17ba32bc3a1f60c91b608d8201528351611062816094840160208801610932565b0160940195945050505050565b60008451611081818460208901610932565b845190830190611095818360208901610932565b84519101906110a8818360208801610932565b019594505050505056fe4142434445464748494a4b4c4d4e4f505152535455565758595a6162636465666768696a6b6c6d6e6f707172737475767778797a303132333435363738392b2fa264697066735822122051e62432c2ba9443c124daa5aa74e551ac74de1248236129333ea9e5a12c392a64736f6c634300081c0033",
  "linkReferences": {},
  "deployedLinkReferences": {}
}